{
	"contract/ClaimContract_flattened.sol": {
		"ClaimContract": {
			"abi": [
				{
					"inputs": [
						{
							"internalType": "address",
							"name": "_initialOwner",
							"type": "address"
						},
						{
							"internalType": "address",
							"name": "_signerAddress",
							"type": "address"
						}
					],
					"stateMutability": "nonpayable",
					"type": "constructor"
				},
				{
					"inputs": [],
					"name": "ECDSAInvalidSignature",
					"type": "error"
				},
				{
					"inputs": [
						{
							"internalType": "uint256",
							"name": "length",
							"type": "uint256"
						}
					],
					"name": "ECDSAInvalidSignatureLength",
					"type": "error"
				},
				{
					"inputs": [
						{
							"internalType": "bytes32",
							"name": "s",
							"type": "bytes32"
						}
					],
					"name": "ECDSAInvalidSignatureS",
					"type": "error"
				},
				{
					"inputs": [
						{
							"internalType": "address",
							"name": "owner",
							"type": "address"
						}
					],
					"name": "OwnableInvalidOwner",
					"type": "error"
				},
				{
					"inputs": [
						{
							"internalType": "address",
							"name": "account",
							"type": "address"
						}
					],
					"name": "OwnableUnauthorizedAccount",
					"type": "error"
				},
				{
					"anonymous": false,
					"inputs": [
						{
							"indexed": true,
							"internalType": "address",
							"name": "previousOwner",
							"type": "address"
						},
						{
							"indexed": true,
							"internalType": "address",
							"name": "newOwner",
							"type": "address"
						}
					],
					"name": "OwnershipTransferred",
					"type": "event"
				},
				{
					"anonymous": false,
					"inputs": [
						{
							"indexed": true,
							"internalType": "address",
							"name": "player",
							"type": "address"
						},
						{
							"indexed": true,
							"internalType": "address",
							"name": "tokenContract",
							"type": "address"
						},
						{
							"indexed": false,
							"internalType": "uint256",
							"name": "amount",
							"type": "uint256"
						},
						{
							"indexed": false,
							"internalType": "uint256",
							"name": "nonce",
							"type": "uint256"
						}
					],
					"name": "RewardClaimed",
					"type": "event"
				},
				{
					"inputs": [
						{
							"internalType": "address",
							"name": "tokenContract",
							"type": "address"
						},
						{
							"internalType": "uint256",
							"name": "amount",
							"type": "uint256"
						},
						{
							"internalType": "uint256",
							"name": "nonce",
							"type": "uint256"
						},
						{
							"internalType": "bytes",
							"name": "signature",
							"type": "bytes"
						}
					],
					"name": "claimReward",
					"outputs": [],
					"stateMutability": "nonpayable",
					"type": "function"
				},
				{
					"inputs": [],
					"name": "owner",
					"outputs": [
						{
							"internalType": "address",
							"name": "",
							"type": "address"
						}
					],
					"stateMutability": "view",
					"type": "function"
				},
				{
					"inputs": [],
					"name": "renounceOwnership",
					"outputs": [],
					"stateMutability": "nonpayable",
					"type": "function"
				},
				{
					"inputs": [
						{
							"internalType": "address",
							"name": "newOwner",
							"type": "address"
						}
					],
					"name": "transferOwnership",
					"outputs": [],
					"stateMutability": "nonpayable",
					"type": "function"
				},
				{
					"inputs": [
						{
							"internalType": "address",
							"name": "_newSignerAddress",
							"type": "address"
						}
					],
					"name": "updateSignerAddress",
					"outputs": [],
					"stateMutability": "nonpayable",
					"type": "function"
				},
				{
					"inputs": [
						{
							"internalType": "address",
							"name": "tokenContract",
							"type": "address"
						},
						{
							"internalType": "address",
							"name": "to",
							"type": "address"
						},
						{
							"internalType": "uint256",
							"name": "amount",
							"type": "uint256"
						}
					],
					"name": "withdrawTokens",
					"outputs": [],
					"stateMutability": "nonpayable",
					"type": "function"
				}
			],
			"devdoc": {
				"details": "This contract manages the distribution of rewards for the ChainBreaker game. It holds the tokens and releases them only upon receiving a valid signature from a trusted backend server.",
				"errors": {
					"ECDSAInvalidSignature()": [
						{
							"details": "The signature derives the `address(0)`."
						}
					],
					"ECDSAInvalidSignatureLength(uint256)": [
						{
							"details": "The signature has an invalid length."
						}
					],
					"ECDSAInvalidSignatureS(bytes32)": [
						{
							"details": "The signature has an S value that is in the upper half order."
						}
					],
					"OwnableInvalidOwner(address)": [
						{
							"details": "The owner is not a valid owner account. (eg. `address(0)`)"
						}
					],
					"OwnableUnauthorizedAccount(address)": [
						{
							"details": "The caller account is not authorized to perform an operation."
						}
					]
				},
				"kind": "dev",
				"methods": {
					"claimReward(address,uint256,uint256,bytes)": {
						"details": "The main function for a player to claim their reward.",
						"params": {
							"amount": "The amount of tokens to be claimed.",
							"nonce": "A unique number for this specific claim to prevent replays.",
							"signature": "The cryptographic signature from the backend server.",
							"tokenContract": "The address of the ERC20 token they are claiming."
						}
					},
					"constructor": {
						"details": "The constructor runs once on deployment.",
						"params": {
							"_initialOwner": "The address that will own this contract (your wallet).",
							"_signerAddress": "The public address of the backend server's wallet."
						}
					},
					"owner()": {
						"details": "Returns the address of the current owner."
					},
					"renounceOwnership()": {
						"details": "Leaves the contract without owner. It will not be possible to call `onlyOwner` functions. Can only be called by the current owner. NOTE: Renouncing ownership will leave the contract without an owner, thereby disabling any functionality that is only available to the owner."
					},
					"transferOwnership(address)": {
						"details": "Transfers ownership of the contract to a new account (`newOwner`). Can only be called by the current owner."
					}
				},
				"title": "ClaimContract",
				"version": 1
			},
			"evm": {
				"assembly": "    /* \"contract/ClaimContract_flattened.sol\":12381:14567  contract ClaimContract is Ownable {... */\n  mstore(0x40, 0x80)\n    /* \"contract/ClaimContract_flattened.sol\":12850:12979  constructor(address _initialOwner, address _signerAddress) Ownable(_initialOwner) {... */\n  callvalue\n  dup1\n  iszero\n  tag_1\n  jumpi\n  revert(0x00, 0x00)\ntag_1:\n  pop\n  mload(0x40)\n  sub(codesize, bytecodeSize)\n  dup1\n  bytecodeSize\n  dup4\n  codecopy\n  dup2\n  dup2\n  add\n  0x40\n  mstore\n  dup2\n  add\n  swap1\n  tag_2\n  swap2\n  swap1\n  tag_3\n  jump\t// in\ntag_2:\n    /* \"contract/ClaimContract_flattened.sol\":12917:12930  _initialOwner */\n  dup2\n    /* \"contract/ClaimContract_flattened.sol\":10182:10183  0 */\n  0x00\n    /* \"contract/ClaimContract_flattened.sol\":10158:10184  initialOwner == address(0) */\n  0xffffffffffffffffffffffffffffffffffffffff\n  and\n    /* \"contract/ClaimContract_flattened.sol\":10158:10170  initialOwner */\n  dup2\n    /* \"contract/ClaimContract_flattened.sol\":10158:10184  initialOwner == address(0) */\n  0xffffffffffffffffffffffffffffffffffffffff\n  and\n  sub\n    /* \"contract/ClaimContract_flattened.sol\":10154:10249  if (initialOwner == address(0)) {... */\n  tag_7\n  jumpi\n    /* \"contract/ClaimContract_flattened.sol\":10235:10236  0 */\n  0x00\n    /* \"contract/ClaimContract_flattened.sol\":10207:10238  OwnableInvalidOwner(address(0)) */\n  mload(0x40)\n  0x1e4fbdf700000000000000000000000000000000000000000000000000000000\n  dup2\n  mstore\n  0x04\n  add\n  tag_8\n  swap2\n  swap1\n  tag_9\n  jump\t// in\ntag_8:\n  mload(0x40)\n  dup1\n  swap2\n  sub\n  swap1\n  revert\n    /* \"contract/ClaimContract_flattened.sol\":10154:10249  if (initialOwner == address(0)) {... */\ntag_7:\n    /* \"contract/ClaimContract_flattened.sol\":10258:10290  _transferOwnership(initialOwner) */\n  tag_10\n    /* \"contract/ClaimContract_flattened.sol\":10277:10289  initialOwner */\n  dup2\n    /* \"contract/ClaimContract_flattened.sol\":10258:10276  _transferOwnership */\n  shl(0x20, tag_11)\n    /* \"contract/ClaimContract_flattened.sol\":10258:10290  _transferOwnership(initialOwner) */\n  0x20\n  shr\n  jump\t// in\ntag_10:\n    /* \"contract/ClaimContract_flattened.sol\":10110:10297  constructor(address initialOwner) {... */\n  pop\n    /* \"contract/ClaimContract_flattened.sol\":12958:12972  _signerAddress */\n  dup1\n    /* \"contract/ClaimContract_flattened.sol\":12942:12955  signerAddress */\n  0x01\n  0x00\n    /* \"contract/ClaimContract_flattened.sol\":12942:12972  signerAddress = _signerAddress */\n  0x0100\n  exp\n  dup2\n  sload\n  dup2\n  0xffffffffffffffffffffffffffffffffffffffff\n  mul\n  not\n  and\n  swap1\n  dup4\n  0xffffffffffffffffffffffffffffffffffffffff\n  and\n  mul\n  or\n  swap1\n  sstore\n  pop\n    /* \"contract/ClaimContract_flattened.sol\":12850:12979  constructor(address _initialOwner, address _signerAddress) Ownable(_initialOwner) {... */\n  pop\n  pop\n    /* \"contract/ClaimContract_flattened.sol\":12381:14567  contract ClaimContract is Ownable {... */\n  jump(tag_13)\n    /* \"contract/ClaimContract_flattened.sol\":11797:11984  function _transferOwnership(address newOwner) internal virtual {... */\ntag_11:\n    /* \"contract/ClaimContract_flattened.sol\":11870:11886  address oldOwner */\n  0x00\n    /* \"contract/ClaimContract_flattened.sol\":11889:11895  _owner */\n  0x00\n  0x00\n  swap1\n  sload\n  swap1\n  0x0100\n  exp\n  swap1\n  div\n  0xffffffffffffffffffffffffffffffffffffffff\n  and\n    /* \"contract/ClaimContract_flattened.sol\":11870:11895  address oldOwner = _owner */\n  swap1\n  pop\n    /* \"contract/ClaimContract_flattened.sol\":11914:11922  newOwner */\n  dup2\n    /* \"contract/ClaimContract_flattened.sol\":11905:11911  _owner */\n  0x00\n  0x00\n    /* \"contract/ClaimContract_flattened.sol\":11905:11922  _owner = newOwner */\n  0x0100\n  exp\n  dup2\n  sload\n  dup2\n  0xffffffffffffffffffffffffffffffffffffffff\n  mul\n  not\n  and\n  swap1\n  dup4\n  0xffffffffffffffffffffffffffffffffffffffff\n  and\n  mul\n  or\n  swap1\n  sstore\n  pop\n    /* \"contract/ClaimContract_flattened.sol\":11968:11976  newOwner */\n  dup2\n    /* \"contract/ClaimContract_flattened.sol\":11937:11977  OwnershipTransferred(oldOwner, newOwner) */\n  0xffffffffffffffffffffffffffffffffffffffff\n  and\n    /* \"contract/ClaimContract_flattened.sol\":11958:11966  oldOwner */\n  dup2\n    /* \"contract/ClaimContract_flattened.sol\":11937:11977  OwnershipTransferred(oldOwner, newOwner) */\n  0xffffffffffffffffffffffffffffffffffffffff\n  and\n  0x8be0079c531659141344cd1fd0a4f28419497f9722a3daafe3b4186f6b6457e0\n  mload(0x40)\n  mload(0x40)\n  dup1\n  swap2\n  sub\n  swap1\n  log3\n    /* \"contract/ClaimContract_flattened.sol\":11860:11984  {... */\n  pop\n    /* \"contract/ClaimContract_flattened.sol\":11797:11984  function _transferOwnership(address newOwner) internal virtual {... */\n  pop\n  jump\t// out\n    /* \"#utility.yul\":88:205   */\ntag_16:\n    /* \"#utility.yul\":197:198   */\n  0x00\n    /* \"#utility.yul\":194:195   */\n  0x00\n    /* \"#utility.yul\":187:199   */\n  revert\n    /* \"#utility.yul\":334:460   */\ntag_18:\n    /* \"#utility.yul\":371:378   */\n  0x00\n    /* \"#utility.yul\":411:453   */\n  0xffffffffffffffffffffffffffffffffffffffff\n    /* \"#utility.yul\":404:409   */\n  dup3\n    /* \"#utility.yul\":400:454   */\n  and\n    /* \"#utility.yul\":389:454   */\n  swap1\n  pop\n    /* \"#utility.yul\":334:460   */\n  swap2\n  swap1\n  pop\n  jump\t// out\n    /* \"#utility.yul\":466:562   */\ntag_19:\n    /* \"#utility.yul\":503:510   */\n  0x00\n    /* \"#utility.yul\":532:556   */\n  tag_29\n    /* \"#utility.yul\":550:555   */\n  dup3\n    /* \"#utility.yul\":532:556   */\n  tag_18\n  jump\t// in\ntag_29:\n    /* \"#utility.yul\":521:556   */\n  swap1\n  pop\n    /* \"#utility.yul\":466:562   */\n  swap2\n  swap1\n  pop\n  jump\t// out\n    /* \"#utility.yul\":568:690   */\ntag_20:\n    /* \"#utility.yul\":641:665   */\n  tag_31\n    /* \"#utility.yul\":659:664   */\n  dup2\n    /* \"#utility.yul\":641:665   */\n  tag_19\n  jump\t// in\ntag_31:\n    /* \"#utility.yul\":634:639   */\n  dup2\n    /* \"#utility.yul\":631:666   */\n  eq\n    /* \"#utility.yul\":621:684   */\n  tag_32\n  jumpi\n    /* \"#utility.yul\":680:681   */\n  0x00\n    /* \"#utility.yul\":677:678   */\n  0x00\n    /* \"#utility.yul\":670:682   */\n  revert\n    /* \"#utility.yul\":621:684   */\ntag_32:\n    /* \"#utility.yul\":568:690   */\n  pop\n  jump\t// out\n    /* \"#utility.yul\":696:839   */\ntag_21:\n    /* \"#utility.yul\":753:758   */\n  0x00\n    /* \"#utility.yul\":784:790   */\n  dup2\n    /* \"#utility.yul\":778:791   */\n  mload\n    /* \"#utility.yul\":769:791   */\n  swap1\n  pop\n    /* \"#utility.yul\":800:833   */\n  tag_34\n    /* \"#utility.yul\":827:832   */\n  dup2\n    /* \"#utility.yul\":800:833   */\n  tag_20\n  jump\t// in\ntag_34:\n    /* \"#utility.yul\":696:839   */\n  swap3\n  swap2\n  pop\n  pop\n  jump\t// out\n    /* \"#utility.yul\":845:1352   */\ntag_3:\n    /* \"#utility.yul\":924:930   */\n  0x00\n    /* \"#utility.yul\":932:938   */\n  0x00\n    /* \"#utility.yul\":981:983   */\n  0x40\n    /* \"#utility.yul\":969:978   */\n  dup4\n    /* \"#utility.yul\":960:967   */\n  dup6\n    /* \"#utility.yul\":956:979   */\n  sub\n    /* \"#utility.yul\":952:984   */\n  slt\n    /* \"#utility.yul\":949:1068   */\n  iszero\n  tag_36\n  jumpi\n    /* \"#utility.yul\":987:1066   */\n  tag_37\n  tag_16\n  jump\t// in\ntag_37:\n    /* \"#utility.yul\":949:1068   */\ntag_36:\n    /* \"#utility.yul\":1107:1108   */\n  0x00\n    /* \"#utility.yul\":1132:1196   */\n  tag_38\n    /* \"#utility.yul\":1188:1195   */\n  dup6\n    /* \"#utility.yul\":1179:1185   */\n  dup3\n    /* \"#utility.yul\":1168:1177   */\n  dup7\n    /* \"#utility.yul\":1164:1186   */\n  add\n    /* \"#utility.yul\":1132:1196   */\n  tag_21\n  jump\t// in\ntag_38:\n    /* \"#utility.yul\":1122:1196   */\n  swap3\n  pop\n    /* \"#utility.yul\":1078:1206   */\n  pop\n    /* \"#utility.yul\":1245:1247   */\n  0x20\n    /* \"#utility.yul\":1271:1335   */\n  tag_39\n    /* \"#utility.yul\":1327:1334   */\n  dup6\n    /* \"#utility.yul\":1318:1324   */\n  dup3\n    /* \"#utility.yul\":1307:1316   */\n  dup7\n    /* \"#utility.yul\":1303:1325   */\n  add\n    /* \"#utility.yul\":1271:1335   */\n  tag_21\n  jump\t// in\ntag_39:\n    /* \"#utility.yul\":1261:1335   */\n  swap2\n  pop\n    /* \"#utility.yul\":1216:1345   */\n  pop\n    /* \"#utility.yul\":845:1352   */\n  swap3\n  pop\n  swap3\n  swap1\n  pop\n  jump\t// out\n    /* \"#utility.yul\":1358:1476   */\ntag_22:\n    /* \"#utility.yul\":1445:1469   */\n  tag_41\n    /* \"#utility.yul\":1463:1468   */\n  dup2\n    /* \"#utility.yul\":1445:1469   */\n  tag_19\n  jump\t// in\ntag_41:\n    /* \"#utility.yul\":1440:1443   */\n  dup3\n    /* \"#utility.yul\":1433:1470   */\n  mstore\n    /* \"#utility.yul\":1358:1476   */\n  pop\n  pop\n  jump\t// out\n    /* \"#utility.yul\":1482:1704   */\ntag_9:\n    /* \"#utility.yul\":1575:1579   */\n  0x00\n    /* \"#utility.yul\":1613:1615   */\n  0x20\n    /* \"#utility.yul\":1602:1611   */\n  dup3\n    /* \"#utility.yul\":1598:1616   */\n  add\n    /* \"#utility.yul\":1590:1616   */\n  swap1\n  pop\n    /* \"#utility.yul\":1626:1697   */\n  tag_43\n    /* \"#utility.yul\":1694:1695   */\n  0x00\n    /* \"#utility.yul\":1683:1692   */\n  dup4\n    /* \"#utility.yul\":1679:1696   */\n  add\n    /* \"#utility.yul\":1670:1676   */\n  dup5\n    /* \"#utility.yul\":1626:1697   */\n  tag_22\n  jump\t// in\ntag_43:\n    /* \"#utility.yul\":1482:1704   */\n  swap3\n  swap2\n  pop\n  pop\n  jump\t// out\n    /* \"contract/ClaimContract_flattened.sol\":12381:14567  contract ClaimContract is Ownable {... */\ntag_13:\n  dataSize(sub_0)\n  dup1\n  dataOffset(sub_0)\n  0x00\n  codecopy\n  0x00\n  return\nstop\n\nsub_0: assembly {\n        /* \"contract/ClaimContract_flattened.sol\":12381:14567  contract ClaimContract is Ownable {... */\n      mstore(0x40, 0x80)\n      callvalue\n      dup1\n      iszero\n      tag_1\n      jumpi\n      revert(0x00, 0x00)\n    tag_1:\n      pop\n      jumpi(tag_2, lt(calldatasize, 0x04))\n      shr(0xe0, calldataload(0x00))\n      dup1\n      0x5e35359e\n      eq\n      tag_3\n      jumpi\n      dup1\n      0x61519f42\n      eq\n      tag_4\n      jumpi\n      dup1\n      0x715018a6\n      eq\n      tag_5\n      jumpi\n      dup1\n      0x8da5cb5b\n      eq\n      tag_6\n      jumpi\n      dup1\n      0x8fa2a9f0\n      eq\n      tag_7\n      jumpi\n      dup1\n      0xf2fde38b\n      eq\n      tag_8\n      jumpi\n    tag_2:\n      revert(0x00, 0x00)\n        /* \"contract/ClaimContract_flattened.sol\":14412:14565  function withdrawTokens(address tokenContract, address to, uint256 amount) external onlyOwner {... */\n    tag_3:\n      tag_9\n      0x04\n      dup1\n      calldatasize\n      sub\n      dup2\n      add\n      swap1\n      tag_10\n      swap2\n      swap1\n      tag_11\n      jump\t// in\n    tag_10:\n      tag_12\n      jump\t// in\n    tag_9:\n      stop\n        /* \"contract/ClaimContract_flattened.sol\":13359:14234  function claimReward(... */\n    tag_4:\n      tag_13\n      0x04\n      dup1\n      calldatasize\n      sub\n      dup2\n      add\n      swap1\n      tag_14\n      swap2\n      swap1\n      tag_15\n      jump\t// in\n    tag_14:\n      tag_16\n      jump\t// in\n    tag_13:\n      stop\n        /* \"contract/ClaimContract_flattened.sol\":11178:11279  function renounceOwnership() public virtual onlyOwner {... */\n    tag_5:\n      tag_17\n      tag_18\n      jump\t// in\n    tag_17:\n      stop\n        /* \"contract/ClaimContract_flattened.sol\":10523:10608  function owner() public view virtual returns (address) {... */\n    tag_6:\n      tag_19\n      tag_20\n      jump\t// in\n    tag_19:\n      mload(0x40)\n      tag_21\n      swap2\n      swap1\n      tag_22\n      jump\t// in\n    tag_21:\n      mload(0x40)\n      dup1\n      swap2\n      sub\n      swap1\n      return\n        /* \"contract/ClaimContract_flattened.sol\":14281:14406  function updateSignerAddress(address _newSignerAddress) external onlyOwner {... */\n    tag_7:\n      tag_23\n      0x04\n      dup1\n      calldatasize\n      sub\n      dup2\n      add\n      swap1\n      tag_24\n      swap2\n      swap1\n      tag_25\n      jump\t// in\n    tag_24:\n      tag_26\n      jump\t// in\n    tag_23:\n      stop\n        /* \"contract/ClaimContract_flattened.sol\":11428:11643  function transferOwnership(address newOwner) public virtual onlyOwner {... */\n    tag_8:\n      tag_27\n      0x04\n      dup1\n      calldatasize\n      sub\n      dup2\n      add\n      swap1\n      tag_28\n      swap2\n      swap1\n      tag_25\n      jump\t// in\n    tag_28:\n      tag_29\n      jump\t// in\n    tag_27:\n      stop\n        /* \"contract/ClaimContract_flattened.sol\":14412:14565  function withdrawTokens(address tokenContract, address to, uint256 amount) external onlyOwner {... */\n    tag_12:\n        /* \"contract/ClaimContract_flattened.sol\":10416:10429  _checkOwner() */\n      tag_31\n        /* \"contract/ClaimContract_flattened.sol\":10416:10427  _checkOwner */\n      tag_32\n        /* \"contract/ClaimContract_flattened.sol\":10416:10429  _checkOwner() */\n      jump\t// in\n    tag_31:\n        /* \"contract/ClaimContract_flattened.sol\":14523:14536  tokenContract */\n      dup3\n        /* \"contract/ClaimContract_flattened.sol\":14516:14546  IERC20(tokenContract).transfer */\n      0xffffffffffffffffffffffffffffffffffffffff\n      and\n      0xa9059cbb\n        /* \"contract/ClaimContract_flattened.sol\":14547:14549  to */\n      dup4\n        /* \"contract/ClaimContract_flattened.sol\":14551:14557  amount */\n      dup4\n        /* \"contract/ClaimContract_flattened.sol\":14516:14558  IERC20(tokenContract).transfer(to, amount) */\n      mload(0x40)\n      dup4\n      0xffffffff\n      and\n      0xe0\n      shl\n      dup2\n      mstore\n      0x04\n      add\n      tag_34\n      swap3\n      swap2\n      swap1\n      tag_35\n      jump\t// in\n    tag_34:\n      0x20\n      mload(0x40)\n      dup1\n      dup4\n      sub\n      dup2\n      0x00\n      dup8\n      gas\n      call\n      iszero\n      dup1\n      iszero\n      tag_37\n      jumpi\n      returndatacopy(0x00, 0x00, returndatasize)\n      revert(0x00, returndatasize)\n    tag_37:\n      pop\n      pop\n      pop\n      pop\n      mload(0x40)\n      returndatasize\n      not(0x1f)\n      0x1f\n      dup3\n      add\n      and\n      dup3\n      add\n      dup1\n      0x40\n      mstore\n      pop\n      dup2\n      add\n      swap1\n      tag_38\n      swap2\n      swap1\n      tag_39\n      jump\t// in\n    tag_38:\n      pop\n        /* \"contract/ClaimContract_flattened.sol\":14412:14565  function withdrawTokens(address tokenContract, address to, uint256 amount) external onlyOwner {... */\n      pop\n      pop\n      pop\n      jump\t// out\n        /* \"contract/ClaimContract_flattened.sol\":13359:14234  function claimReward(... */\n    tag_16:\n        /* \"contract/ClaimContract_flattened.sol\":13524:13534  usedNonces */\n      0x02\n        /* \"contract/ClaimContract_flattened.sol\":13524:13541  usedNonces[nonce] */\n      0x00\n        /* \"contract/ClaimContract_flattened.sol\":13535:13540  nonce */\n      dup4\n        /* \"contract/ClaimContract_flattened.sol\":13524:13541  usedNonces[nonce] */\n      dup2\n      mstore\n      0x20\n      add\n      swap1\n      dup2\n      mstore\n      0x20\n      add\n      0x00\n      keccak256\n      0x00\n      swap1\n      sload\n      swap1\n      0x0100\n      exp\n      swap1\n      div\n      0xff\n      and\n        /* \"contract/ClaimContract_flattened.sol\":13523:13541  !usedNonces[nonce] */\n      iszero\n        /* \"contract/ClaimContract_flattened.sol\":13515:13589  require(!usedNonces[nonce], \"ClaimContract: Nonce has already been used.\") */\n      tag_41\n      jumpi\n      mload(0x40)\n      0x08c379a000000000000000000000000000000000000000000000000000000000\n      dup2\n      mstore\n      0x04\n      add\n      tag_42\n      swap1\n      tag_43\n      jump\t// in\n    tag_42:\n      mload(0x40)\n      dup1\n      swap2\n      sub\n      swap1\n      revert\n    tag_41:\n        /* \"contract/ClaimContract_flattened.sol\":13696:13715  bytes32 messageHash */\n      0x00\n        /* \"contract/ClaimContract_flattened.sol\":13745:13755  msg.sender */\n      caller\n        /* \"contract/ClaimContract_flattened.sol\":13757:13770  tokenContract */\n      dup6\n        /* \"contract/ClaimContract_flattened.sol\":13772:13778  amount */\n      dup6\n        /* \"contract/ClaimContract_flattened.sol\":13780:13785  nonce */\n      dup6\n        /* \"contract/ClaimContract_flattened.sol\":13728:13786  abi.encodePacked(msg.sender, tokenContract, amount, nonce) */\n      add(0x20, mload(0x40))\n      tag_44\n      swap5\n      swap4\n      swap3\n      swap2\n      swap1\n      tag_45\n      jump\t// in\n    tag_44:\n      mload(0x40)\n      0x20\n      dup2\n      dup4\n      sub\n      sub\n      dup2\n      mstore\n      swap1\n      0x40\n      mstore\n        /* \"contract/ClaimContract_flattened.sol\":13718:13787  keccak256(abi.encodePacked(msg.sender, tokenContract, amount, nonce)) */\n      dup1\n      mload\n      swap1\n      0x20\n      add\n      keccak256\n        /* \"contract/ClaimContract_flattened.sol\":13696:13787  bytes32 messageHash = keccak256(abi.encodePacked(msg.sender, tokenContract, amount, nonce)) */\n      swap1\n      pop\n        /* \"contract/ClaimContract_flattened.sol\":13908:13932  address recoveredAddress */\n      0x00\n        /* \"contract/ClaimContract_flattened.sol\":13935:13972  ECDSA.recover(messageHash, signature) */\n      tag_46\n        /* \"contract/ClaimContract_flattened.sol\":13949:13960  messageHash */\n      dup3\n        /* \"contract/ClaimContract_flattened.sol\":13962:13971  signature */\n      dup5\n        /* \"contract/ClaimContract_flattened.sol\":13935:13948  ECDSA.recover */\n      tag_47\n        /* \"contract/ClaimContract_flattened.sol\":13935:13972  ECDSA.recover(messageHash, signature) */\n      jump\t// in\n    tag_46:\n        /* \"contract/ClaimContract_flattened.sol\":13908:13972  address recoveredAddress = ECDSA.recover(messageHash, signature) */\n      swap1\n      pop\n        /* \"contract/ClaimContract_flattened.sol\":14011:14024  signerAddress */\n      0x01\n      0x00\n      swap1\n      sload\n      swap1\n      0x0100\n      exp\n      swap1\n      div\n      0xffffffffffffffffffffffffffffffffffffffff\n      and\n        /* \"contract/ClaimContract_flattened.sol\":13991:14024  recoveredAddress == signerAddress */\n      0xffffffffffffffffffffffffffffffffffffffff\n      and\n        /* \"contract/ClaimContract_flattened.sol\":13991:14007  recoveredAddress */\n      dup2\n        /* \"contract/ClaimContract_flattened.sol\":13991:14024  recoveredAddress == signerAddress */\n      0xffffffffffffffffffffffffffffffffffffffff\n      and\n      eq\n        /* \"contract/ClaimContract_flattened.sol\":13983:14062  require(recoveredAddress == signerAddress, \"ClaimContract: Invalid signature.\") */\n      tag_48\n      jumpi\n      mload(0x40)\n      0x08c379a000000000000000000000000000000000000000000000000000000000\n      dup2\n      mstore\n      0x04\n      add\n      tag_49\n      swap1\n      tag_50\n      jump\t// in\n    tag_49:\n      mload(0x40)\n      dup1\n      swap2\n      sub\n      swap1\n      revert\n    tag_48:\n        /* \"contract/ClaimContract_flattened.sol\":14093:14097  true */\n      0x01\n        /* \"contract/ClaimContract_flattened.sol\":14073:14083  usedNonces */\n      0x02\n        /* \"contract/ClaimContract_flattened.sol\":14073:14090  usedNonces[nonce] */\n      0x00\n        /* \"contract/ClaimContract_flattened.sol\":14084:14089  nonce */\n      dup7\n        /* \"contract/ClaimContract_flattened.sol\":14073:14090  usedNonces[nonce] */\n      dup2\n      mstore\n      0x20\n      add\n      swap1\n      dup2\n      mstore\n      0x20\n      add\n      0x00\n      keccak256\n      0x00\n        /* \"contract/ClaimContract_flattened.sol\":14073:14097  usedNonces[nonce] = true */\n      0x0100\n      exp\n      dup2\n      sload\n      dup2\n      0xff\n      mul\n      not\n      and\n      swap1\n      dup4\n      iszero\n      iszero\n      mul\n      or\n      swap1\n      sstore\n      pop\n        /* \"contract/ClaimContract_flattened.sol\":14114:14127  tokenContract */\n      dup6\n        /* \"contract/ClaimContract_flattened.sol\":14107:14137  IERC20(tokenContract).transfer */\n      0xffffffffffffffffffffffffffffffffffffffff\n      and\n      0xa9059cbb\n        /* \"contract/ClaimContract_flattened.sol\":14138:14148  msg.sender */\n      caller\n        /* \"contract/ClaimContract_flattened.sol\":14150:14156  amount */\n      dup8\n        /* \"contract/ClaimContract_flattened.sol\":14107:14157  IERC20(tokenContract).transfer(msg.sender, amount) */\n      mload(0x40)\n      dup4\n      0xffffffff\n      and\n      0xe0\n      shl\n      dup2\n      mstore\n      0x04\n      add\n      tag_51\n      swap3\n      swap2\n      swap1\n      tag_35\n      jump\t// in\n    tag_51:\n      0x20\n      mload(0x40)\n      dup1\n      dup4\n      sub\n      dup2\n      0x00\n      dup8\n      gas\n      call\n      iszero\n      dup1\n      iszero\n      tag_53\n      jumpi\n      returndatacopy(0x00, 0x00, returndatasize)\n      revert(0x00, returndatasize)\n    tag_53:\n      pop\n      pop\n      pop\n      pop\n      mload(0x40)\n      returndatasize\n      not(0x1f)\n      0x1f\n      dup3\n      add\n      and\n      dup3\n      add\n      dup1\n      0x40\n      mstore\n      pop\n      dup2\n      add\n      swap1\n      tag_54\n      swap2\n      swap1\n      tag_39\n      jump\t// in\n    tag_54:\n      pop\n        /* \"contract/ClaimContract_flattened.sol\":14198:14211  tokenContract */\n      dup6\n        /* \"contract/ClaimContract_flattened.sol\":14172:14227  RewardClaimed(msg.sender, tokenContract, amount, nonce) */\n      0xffffffffffffffffffffffffffffffffffffffff\n      and\n        /* \"contract/ClaimContract_flattened.sol\":14186:14196  msg.sender */\n      caller\n        /* \"contract/ClaimContract_flattened.sol\":14172:14227  RewardClaimed(msg.sender, tokenContract, amount, nonce) */\n      0xffffffffffffffffffffffffffffffffffffffff\n      and\n      0x7a84a08b02c91f3c62d572853f966fc799bbd121e8ad7833a4494ab8dcfcb404\n        /* \"contract/ClaimContract_flattened.sol\":14213:14219  amount */\n      dup8\n        /* \"contract/ClaimContract_flattened.sol\":14221:14226  nonce */\n      dup8\n        /* \"contract/ClaimContract_flattened.sol\":14172:14227  RewardClaimed(msg.sender, tokenContract, amount, nonce) */\n      mload(0x40)\n      tag_55\n      swap3\n      swap2\n      swap1\n      tag_56\n      jump\t// in\n    tag_55:\n      mload(0x40)\n      dup1\n      swap2\n      sub\n      swap1\n      log3\n        /* \"contract/ClaimContract_flattened.sol\":13505:14234  {... */\n      pop\n      pop\n        /* \"contract/ClaimContract_flattened.sol\":13359:14234  function claimReward(... */\n      pop\n      pop\n      pop\n      pop\n      jump\t// out\n        /* \"contract/ClaimContract_flattened.sol\":11178:11279  function renounceOwnership() public virtual onlyOwner {... */\n    tag_18:\n        /* \"contract/ClaimContract_flattened.sol\":10416:10429  _checkOwner() */\n      tag_58\n        /* \"contract/ClaimContract_flattened.sol\":10416:10427  _checkOwner */\n      tag_32\n        /* \"contract/ClaimContract_flattened.sol\":10416:10429  _checkOwner() */\n      jump\t// in\n    tag_58:\n        /* \"contract/ClaimContract_flattened.sol\":11242:11272  _transferOwnership(address(0)) */\n      tag_60\n        /* \"contract/ClaimContract_flattened.sol\":11269:11270  0 */\n      0x00\n        /* \"contract/ClaimContract_flattened.sol\":11242:11260  _transferOwnership */\n      tag_61\n        /* \"contract/ClaimContract_flattened.sol\":11242:11272  _transferOwnership(address(0)) */\n      jump\t// in\n    tag_60:\n        /* \"contract/ClaimContract_flattened.sol\":11178:11279  function renounceOwnership() public virtual onlyOwner {... */\n      jump\t// out\n        /* \"contract/ClaimContract_flattened.sol\":10523:10608  function owner() public view virtual returns (address) {... */\n    tag_20:\n        /* \"contract/ClaimContract_flattened.sol\":10569:10576  address */\n      0x00\n        /* \"contract/ClaimContract_flattened.sol\":10595:10601  _owner */\n      0x00\n      0x00\n      swap1\n      sload\n      swap1\n      0x0100\n      exp\n      swap1\n      div\n      0xffffffffffffffffffffffffffffffffffffffff\n      and\n        /* \"contract/ClaimContract_flattened.sol\":10588:10601  return _owner */\n      swap1\n      pop\n        /* \"contract/ClaimContract_flattened.sol\":10523:10608  function owner() public view virtual returns (address) {... */\n      swap1\n      jump\t// out\n        /* \"contract/ClaimContract_flattened.sol\":14281:14406  function updateSignerAddress(address _newSignerAddress) external onlyOwner {... */\n    tag_26:\n        /* \"contract/ClaimContract_flattened.sol\":10416:10429  _checkOwner() */\n      tag_64\n        /* \"contract/ClaimContract_flattened.sol\":10416:10427  _checkOwner */\n      tag_32\n        /* \"contract/ClaimContract_flattened.sol\":10416:10429  _checkOwner() */\n      jump\t// in\n    tag_64:\n        /* \"contract/ClaimContract_flattened.sol\":14382:14399  _newSignerAddress */\n      dup1\n        /* \"contract/ClaimContract_flattened.sol\":14366:14379  signerAddress */\n      0x01\n      0x00\n        /* \"contract/ClaimContract_flattened.sol\":14366:14399  signerAddress = _newSignerAddress */\n      0x0100\n      exp\n      dup2\n      sload\n      dup2\n      0xffffffffffffffffffffffffffffffffffffffff\n      mul\n      not\n      and\n      swap1\n      dup4\n      0xffffffffffffffffffffffffffffffffffffffff\n      and\n      mul\n      or\n      swap1\n      sstore\n      pop\n        /* \"contract/ClaimContract_flattened.sol\":14281:14406  function updateSignerAddress(address _newSignerAddress) external onlyOwner {... */\n      pop\n      jump\t// out\n        /* \"contract/ClaimContract_flattened.sol\":11428:11643  function transferOwnership(address newOwner) public virtual onlyOwner {... */\n    tag_29:\n        /* \"contract/ClaimContract_flattened.sol\":10416:10429  _checkOwner() */\n      tag_67\n        /* \"contract/ClaimContract_flattened.sol\":10416:10427  _checkOwner */\n      tag_32\n        /* \"contract/ClaimContract_flattened.sol\":10416:10429  _checkOwner() */\n      jump\t// in\n    tag_67:\n        /* \"contract/ClaimContract_flattened.sol\":11532:11533  0 */\n      0x00\n        /* \"contract/ClaimContract_flattened.sol\":11512:11534  newOwner == address(0) */\n      0xffffffffffffffffffffffffffffffffffffffff\n      and\n        /* \"contract/ClaimContract_flattened.sol\":11512:11520  newOwner */\n      dup2\n        /* \"contract/ClaimContract_flattened.sol\":11512:11534  newOwner == address(0) */\n      0xffffffffffffffffffffffffffffffffffffffff\n      and\n      sub\n        /* \"contract/ClaimContract_flattened.sol\":11508:11599  if (newOwner == address(0)) {... */\n      tag_69\n      jumpi\n        /* \"contract/ClaimContract_flattened.sol\":11585:11586  0 */\n      0x00\n        /* \"contract/ClaimContract_flattened.sol\":11557:11588  OwnableInvalidOwner(address(0)) */\n      mload(0x40)\n      0x1e4fbdf700000000000000000000000000000000000000000000000000000000\n      dup2\n      mstore\n      0x04\n      add\n      tag_70\n      swap2\n      swap1\n      tag_22\n      jump\t// in\n    tag_70:\n      mload(0x40)\n      dup1\n      swap2\n      sub\n      swap1\n      revert\n        /* \"contract/ClaimContract_flattened.sol\":11508:11599  if (newOwner == address(0)) {... */\n    tag_69:\n        /* \"contract/ClaimContract_flattened.sol\":11608:11636  _transferOwnership(newOwner) */\n      tag_71\n        /* \"contract/ClaimContract_flattened.sol\":11627:11635  newOwner */\n      dup2\n        /* \"contract/ClaimContract_flattened.sol\":11608:11626  _transferOwnership */\n      tag_61\n        /* \"contract/ClaimContract_flattened.sol\":11608:11636  _transferOwnership(newOwner) */\n      jump\t// in\n    tag_71:\n        /* \"contract/ClaimContract_flattened.sol\":11428:11643  function transferOwnership(address newOwner) public virtual onlyOwner {... */\n      pop\n      jump\t// out\n        /* \"contract/ClaimContract_flattened.sol\":10681:10843  function _checkOwner() internal view virtual {... */\n    tag_32:\n        /* \"contract/ClaimContract_flattened.sol\":10751:10763  _msgSender() */\n      tag_73\n        /* \"contract/ClaimContract_flattened.sol\":10751:10761  _msgSender */\n      tag_74\n        /* \"contract/ClaimContract_flattened.sol\":10751:10763  _msgSender() */\n      jump\t// in\n    tag_73:\n        /* \"contract/ClaimContract_flattened.sol\":10740:10763  owner() != _msgSender() */\n      0xffffffffffffffffffffffffffffffffffffffff\n      and\n        /* \"contract/ClaimContract_flattened.sol\":10740:10747  owner() */\n      tag_75\n        /* \"contract/ClaimContract_flattened.sol\":10740:10745  owner */\n      tag_20\n        /* \"contract/ClaimContract_flattened.sol\":10740:10747  owner() */\n      jump\t// in\n    tag_75:\n        /* \"contract/ClaimContract_flattened.sol\":10740:10763  owner() != _msgSender() */\n      0xffffffffffffffffffffffffffffffffffffffff\n      and\n      eq\n        /* \"contract/ClaimContract_flattened.sol\":10736:10837  if (owner() != _msgSender()) {... */\n      tag_76\n      jumpi\n        /* \"contract/ClaimContract_flattened.sol\":10813:10825  _msgSender() */\n      tag_77\n        /* \"contract/ClaimContract_flattened.sol\":10813:10823  _msgSender */\n      tag_74\n        /* \"contract/ClaimContract_flattened.sol\":10813:10825  _msgSender() */\n      jump\t// in\n    tag_77:\n        /* \"contract/ClaimContract_flattened.sol\":10786:10826  OwnableUnauthorizedAccount(_msgSender()) */\n      mload(0x40)\n      0x118cdaa700000000000000000000000000000000000000000000000000000000\n      dup2\n      mstore\n      0x04\n      add\n      tag_78\n      swap2\n      swap1\n      tag_22\n      jump\t// in\n    tag_78:\n      mload(0x40)\n      dup1\n      swap2\n      sub\n      swap1\n      revert\n        /* \"contract/ClaimContract_flattened.sol\":10736:10837  if (owner() != _msgSender()) {... */\n    tag_76:\n        /* \"contract/ClaimContract_flattened.sol\":10681:10843  function _checkOwner() internal view virtual {... */\n      jump\t// out\n        /* \"contract/ClaimContract_flattened.sol\":3788:4043  function recover(bytes32 hash, bytes memory signature) internal pure returns (address) {... */\n    tag_47:\n        /* \"contract/ClaimContract_flattened.sol\":3866:3873  address */\n      0x00\n        /* \"contract/ClaimContract_flattened.sol\":3886:3903  address recovered */\n      0x00\n        /* \"contract/ClaimContract_flattened.sol\":3905:3923  RecoverError error */\n      0x00\n        /* \"contract/ClaimContract_flattened.sol\":3925:3941  bytes32 errorArg */\n      0x00\n        /* \"contract/ClaimContract_flattened.sol\":3945:3972  tryRecover(hash, signature) */\n      tag_80\n        /* \"contract/ClaimContract_flattened.sol\":3956:3960  hash */\n      dup7\n        /* \"contract/ClaimContract_flattened.sol\":3962:3971  signature */\n      dup7\n        /* \"contract/ClaimContract_flattened.sol\":3945:3955  tryRecover */\n      tag_81\n        /* \"contract/ClaimContract_flattened.sol\":3945:3972  tryRecover(hash, signature) */\n      jump\t// in\n    tag_80:\n        /* \"contract/ClaimContract_flattened.sol\":3885:3972  (address recovered, RecoverError error, bytes32 errorArg) = tryRecover(hash, signature) */\n      swap3\n      pop\n      swap3\n      pop\n      swap3\n      pop\n        /* \"contract/ClaimContract_flattened.sol\":3982:4010  _throwError(error, errorArg) */\n      tag_82\n        /* \"contract/ClaimContract_flattened.sol\":3994:3999  error */\n      dup3\n        /* \"contract/ClaimContract_flattened.sol\":4001:4009  errorArg */\n      dup3\n        /* \"contract/ClaimContract_flattened.sol\":3982:3993  _throwError */\n      tag_83\n        /* \"contract/ClaimContract_flattened.sol\":3982:4010  _throwError(error, errorArg) */\n      jump\t// in\n    tag_82:\n        /* \"contract/ClaimContract_flattened.sol\":4027:4036  recovered */\n      dup3\n        /* \"contract/ClaimContract_flattened.sol\":4020:4036  return recovered */\n      swap4\n      pop\n      pop\n      pop\n      pop\n        /* \"contract/ClaimContract_flattened.sol\":3788:4043  function recover(bytes32 hash, bytes memory signature) internal pure returns (address) {... */\n      swap3\n      swap2\n      pop\n      pop\n      jump\t// out\n        /* \"contract/ClaimContract_flattened.sol\":11797:11984  function _transferOwnership(address newOwner) internal virtual {... */\n    tag_61:\n        /* \"contract/ClaimContract_flattened.sol\":11870:11886  address oldOwner */\n      0x00\n        /* \"contract/ClaimContract_flattened.sol\":11889:11895  _owner */\n      0x00\n      0x00\n      swap1\n      sload\n      swap1\n      0x0100\n      exp\n      swap1\n      div\n      0xffffffffffffffffffffffffffffffffffffffff\n      and\n        /* \"contract/ClaimContract_flattened.sol\":11870:11895  address oldOwner = _owner */\n      swap1\n      pop\n        /* \"contract/ClaimContract_flattened.sol\":11914:11922  newOwner */\n      dup2\n        /* \"contract/ClaimContract_flattened.sol\":11905:11911  _owner */\n      0x00\n      0x00\n        /* \"contract/ClaimContract_flattened.sol\":11905:11922  _owner = newOwner */\n      0x0100\n      exp\n      dup2\n      sload\n      dup2\n      0xffffffffffffffffffffffffffffffffffffffff\n      mul\n      not\n      and\n      swap1\n      dup4\n      0xffffffffffffffffffffffffffffffffffffffff\n      and\n      mul\n      or\n      swap1\n      sstore\n      pop\n        /* \"contract/ClaimContract_flattened.sol\":11968:11976  newOwner */\n      dup2\n        /* \"contract/ClaimContract_flattened.sol\":11937:11977  OwnershipTransferred(oldOwner, newOwner) */\n      0xffffffffffffffffffffffffffffffffffffffff\n      and\n        /* \"contract/ClaimContract_flattened.sol\":11958:11966  oldOwner */\n      dup2\n        /* \"contract/ClaimContract_flattened.sol\":11937:11977  OwnershipTransferred(oldOwner, newOwner) */\n      0xffffffffffffffffffffffffffffffffffffffff\n      and\n      0x8be0079c531659141344cd1fd0a4f28419497f9722a3daafe3b4186f6b6457e0\n      mload(0x40)\n      mload(0x40)\n      dup1\n      swap2\n      sub\n      swap1\n      log3\n        /* \"contract/ClaimContract_flattened.sol\":11860:11984  {... */\n      pop\n        /* \"contract/ClaimContract_flattened.sol\":11797:11984  function _transferOwnership(address newOwner) internal virtual {... */\n      pop\n      jump\t// out\n        /* \"contract/ClaimContract_flattened.sol\":8548:8644  function _msgSender() internal view virtual returns (address) {... */\n    tag_74:\n        /* \"contract/ClaimContract_flattened.sol\":8601:8608  address */\n      0x00\n        /* \"contract/ClaimContract_flattened.sol\":8627:8637  msg.sender */\n      caller\n        /* \"contract/ClaimContract_flattened.sol\":8620:8637  return msg.sender */\n      swap1\n      pop\n        /* \"contract/ClaimContract_flattened.sol\":8548:8644  function _msgSender() internal view virtual returns (address) {... */\n      swap1\n      jump\t// out\n        /* \"contract/ClaimContract_flattened.sol\":2215:2981  function tryRecover(bytes32 hash, bytes memory signature) internal pure returns (address, RecoverError, bytes32) {... */\n    tag_81:\n        /* \"contract/ClaimContract_flattened.sol\":2296:2303  address */\n      0x00\n        /* \"contract/ClaimContract_flattened.sol\":2305:2317  RecoverError */\n      0x00\n        /* \"contract/ClaimContract_flattened.sol\":2319:2326  bytes32 */\n      0x00\n        /* \"contract/ClaimContract_flattened.sol\":2362:2364  65 */\n      0x41\n        /* \"contract/ClaimContract_flattened.sol\":2342:2351  signature */\n      dup5\n        /* \"contract/ClaimContract_flattened.sol\":2342:2358  signature.length */\n      mload\n        /* \"contract/ClaimContract_flattened.sol\":2342:2364  signature.length == 65 */\n      sub\n        /* \"contract/ClaimContract_flattened.sol\":2338:2975  if (signature.length == 65) {... */\n      tag_87\n      jumpi\n        /* \"contract/ClaimContract_flattened.sol\":2380:2389  bytes32 r */\n      0x00\n        /* \"contract/ClaimContract_flattened.sol\":2403:2412  bytes32 s */\n      0x00\n        /* \"contract/ClaimContract_flattened.sol\":2426:2433  uint8 v */\n      0x00\n        /* \"contract/ClaimContract_flattened.sol\":2678:2682  0x20 */\n      0x20\n        /* \"contract/ClaimContract_flattened.sol\":2667:2676  signature */\n      dup8\n        /* \"contract/ClaimContract_flattened.sol\":2663:2683  add(signature, 0x20) */\n      add\n        /* \"contract/ClaimContract_flattened.sol\":2657:2684  mload(add(signature, 0x20)) */\n      mload\n        /* \"contract/ClaimContract_flattened.sol\":2652:2684  r := mload(add(signature, 0x20)) */\n      swap3\n      pop\n        /* \"contract/ClaimContract_flattened.sol\":2727:2731  0x40 */\n      0x40\n        /* \"contract/ClaimContract_flattened.sol\":2716:2725  signature */\n      dup8\n        /* \"contract/ClaimContract_flattened.sol\":2712:2732  add(signature, 0x40) */\n      add\n        /* \"contract/ClaimContract_flattened.sol\":2706:2733  mload(add(signature, 0x40)) */\n      mload\n        /* \"contract/ClaimContract_flattened.sol\":2701:2733  s := mload(add(signature, 0x40)) */\n      swap2\n      pop\n        /* \"contract/ClaimContract_flattened.sol\":2784:2788  0x60 */\n      0x60\n        /* \"contract/ClaimContract_flattened.sol\":2773:2782  signature */\n      dup8\n        /* \"contract/ClaimContract_flattened.sol\":2769:2789  add(signature, 0x60) */\n      add\n        /* \"contract/ClaimContract_flattened.sol\":2763:2790  mload(add(signature, 0x60)) */\n      mload\n        /* \"contract/ClaimContract_flattened.sol\":2760:2761  0 */\n      0x00\n        /* \"contract/ClaimContract_flattened.sol\":2755:2791  byte(0, mload(add(signature, 0x60))) */\n      byte\n        /* \"contract/ClaimContract_flattened.sol\":2750:2791  v := byte(0, mload(add(signature, 0x60))) */\n      swap1\n      pop\n        /* \"contract/ClaimContract_flattened.sol\":2825:2850  tryRecover(hash, v, r, s) */\n      tag_88\n        /* \"contract/ClaimContract_flattened.sol\":2836:2840  hash */\n      dup9\n        /* \"contract/ClaimContract_flattened.sol\":2842:2843  v */\n      dup3\n        /* \"contract/ClaimContract_flattened.sol\":2845:2846  r */\n      dup6\n        /* \"contract/ClaimContract_flattened.sol\":2848:2849  s */\n      dup6\n        /* \"contract/ClaimContract_flattened.sol\":2825:2835  tryRecover */\n      tag_89\n        /* \"contract/ClaimContract_flattened.sol\":2825:2850  tryRecover(hash, v, r, s) */\n      jump\t// in\n    tag_88:\n        /* \"contract/ClaimContract_flattened.sol\":2818:2850  return tryRecover(hash, v, r, s) */\n      swap6\n      pop\n      swap6\n      pop\n      swap6\n      pop\n      pop\n      pop\n      pop\n      jump(tag_86)\n        /* \"contract/ClaimContract_flattened.sol\":2338:2975  if (signature.length == 65) {... */\n    tag_87:\n        /* \"contract/ClaimContract_flattened.sol\":2897:2898  0 */\n      0x00\n        /* \"contract/ClaimContract_flattened.sol\":2901:2936  RecoverError.InvalidSignatureLength */\n      0x02\n        /* \"contract/ClaimContract_flattened.sol\":2946:2955  signature */\n      dup6\n        /* \"contract/ClaimContract_flattened.sol\":2946:2962  signature.length */\n      mload\n        /* \"contract/ClaimContract_flattened.sol\":2938:2963  bytes32(signature.length) */\n      0x00\n      shl\n        /* \"contract/ClaimContract_flattened.sol\":2881:2964  return (address(0), RecoverError.InvalidSignatureLength, bytes32(signature.length)) */\n      swap3\n      pop\n      swap3\n      pop\n      swap3\n      pop\n        /* \"contract/ClaimContract_flattened.sol\":2215:2981  function tryRecover(bytes32 hash, bytes memory signature) internal pure returns (address, RecoverError, bytes32) {... */\n    tag_86:\n      swap3\n      pop\n      swap3\n      pop\n      swap3\n      jump\t// out\n        /* \"contract/ClaimContract_flattened.sol\":7282:7814  function _throwError(RecoverError error, bytes32 errorArg) private pure {... */\n    tag_83:\n        /* \"contract/ClaimContract_flattened.sol\":7377:7397  RecoverError.NoError */\n      0x00\n        /* \"contract/ClaimContract_flattened.sol\":7368:7397  error == RecoverError.NoError */\n      0x03\n      dup2\n      gt\n      iszero\n      tag_92\n      jumpi\n      tag_93\n      tag_94\n      jump\t// in\n    tag_93:\n    tag_92:\n        /* \"contract/ClaimContract_flattened.sol\":7368:7373  error */\n      dup3\n        /* \"contract/ClaimContract_flattened.sol\":7368:7397  error == RecoverError.NoError */\n      0x03\n      dup2\n      gt\n      iszero\n      tag_95\n      jumpi\n      tag_96\n      tag_94\n      jump\t// in\n    tag_96:\n    tag_95:\n      sub\n        /* \"contract/ClaimContract_flattened.sol\":7364:7808  if (error == RecoverError.NoError) {... */\n      iszero\n        /* \"contract/ClaimContract_flattened.sol\":7413:7420  return; */\n      tag_91\n        /* \"contract/ClaimContract_flattened.sol\":7364:7808  if (error == RecoverError.NoError) {... */\n      jumpi\n        /* \"contract/ClaimContract_flattened.sol\":7473:7502  RecoverError.InvalidSignature */\n      0x01\n        /* \"contract/ClaimContract_flattened.sol\":7464:7502  error == RecoverError.InvalidSignature */\n      0x03\n      dup2\n      gt\n      iszero\n      tag_99\n      jumpi\n      tag_100\n      tag_94\n      jump\t// in\n    tag_100:\n    tag_99:\n        /* \"contract/ClaimContract_flattened.sol\":7464:7469  error */\n      dup3\n        /* \"contract/ClaimContract_flattened.sol\":7464:7502  error == RecoverError.InvalidSignature */\n      0x03\n      dup2\n      gt\n      iszero\n      tag_101\n      jumpi\n      tag_102\n      tag_94\n      jump\t// in\n    tag_102:\n    tag_101:\n      sub\n        /* \"contract/ClaimContract_flattened.sol\":7460:7808  if (error == RecoverError.InvalidSignature) {... */\n      tag_103\n      jumpi\n        /* \"contract/ClaimContract_flattened.sol\":7525:7548  ECDSAInvalidSignature() */\n      mload(0x40)\n      0xf645eedf00000000000000000000000000000000000000000000000000000000\n      dup2\n      mstore\n      0x04\n      add\n      mload(0x40)\n      dup1\n      swap2\n      sub\n      swap1\n      revert\n        /* \"contract/ClaimContract_flattened.sol\":7460:7808  if (error == RecoverError.InvalidSignature) {... */\n    tag_103:\n        /* \"contract/ClaimContract_flattened.sol\":7578:7613  RecoverError.InvalidSignatureLength */\n      0x02\n        /* \"contract/ClaimContract_flattened.sol\":7569:7613  error == RecoverError.InvalidSignatureLength */\n      0x03\n      dup2\n      gt\n      iszero\n      tag_105\n      jumpi\n      tag_106\n      tag_94\n      jump\t// in\n    tag_106:\n    tag_105:\n        /* \"contract/ClaimContract_flattened.sol\":7569:7574  error */\n      dup3\n        /* \"contract/ClaimContract_flattened.sol\":7569:7613  error == RecoverError.InvalidSignatureLength */\n      0x03\n      dup2\n      gt\n      iszero\n      tag_107\n      jumpi\n      tag_108\n      tag_94\n      jump\t// in\n    tag_108:\n    tag_107:\n      sub\n        /* \"contract/ClaimContract_flattened.sol\":7565:7808  if (error == RecoverError.InvalidSignatureLength) {... */\n      tag_109\n      jumpi\n        /* \"contract/ClaimContract_flattened.sol\":7672:7680  errorArg */\n      dup1\n        /* \"contract/ClaimContract_flattened.sol\":7664:7681  uint256(errorArg) */\n      0x00\n      shr\n        /* \"contract/ClaimContract_flattened.sol\":7636:7682  ECDSAInvalidSignatureLength(uint256(errorArg)) */\n      mload(0x40)\n      0xfce698f700000000000000000000000000000000000000000000000000000000\n      dup2\n      mstore\n      0x04\n      add\n      tag_110\n      swap2\n      swap1\n      tag_111\n      jump\t// in\n    tag_110:\n      mload(0x40)\n      dup1\n      swap2\n      sub\n      swap1\n      revert\n        /* \"contract/ClaimContract_flattened.sol\":7565:7808  if (error == RecoverError.InvalidSignatureLength) {... */\n    tag_109:\n        /* \"contract/ClaimContract_flattened.sol\":7712:7742  RecoverError.InvalidSignatureS */\n      0x03\n        /* \"contract/ClaimContract_flattened.sol\":7703:7742  error == RecoverError.InvalidSignatureS */\n      dup1\n      dup2\n      gt\n      iszero\n      tag_113\n      jumpi\n      tag_114\n      tag_94\n      jump\t// in\n    tag_114:\n    tag_113:\n        /* \"contract/ClaimContract_flattened.sol\":7703:7708  error */\n      dup3\n        /* \"contract/ClaimContract_flattened.sol\":7703:7742  error == RecoverError.InvalidSignatureS */\n      0x03\n      dup2\n      gt\n      iszero\n      tag_115\n      jumpi\n      tag_116\n      tag_94\n      jump\t// in\n    tag_116:\n    tag_115:\n      sub\n        /* \"contract/ClaimContract_flattened.sol\":7699:7808  if (error == RecoverError.InvalidSignatureS) {... */\n      tag_117\n      jumpi\n        /* \"contract/ClaimContract_flattened.sol\":7788:7796  errorArg */\n      dup1\n        /* \"contract/ClaimContract_flattened.sol\":7765:7797  ECDSAInvalidSignatureS(errorArg) */\n      mload(0x40)\n      0xd78bce0c00000000000000000000000000000000000000000000000000000000\n      dup2\n      mstore\n      0x04\n      add\n      tag_118\n      swap2\n      swap1\n      tag_119\n      jump\t// in\n    tag_118:\n      mload(0x40)\n      dup1\n      swap2\n      sub\n      swap1\n      revert\n        /* \"contract/ClaimContract_flattened.sol\":7699:7808  if (error == RecoverError.InvalidSignatureS) {... */\n    tag_117:\n        /* \"contract/ClaimContract_flattened.sol\":7282:7814  function _throwError(RecoverError error, bytes32 errorArg) private pure {... */\n    tag_91:\n      pop\n      pop\n      jump\t// out\n        /* \"contract/ClaimContract_flattened.sol\":5226:6756  function tryRecover(... */\n    tag_89:\n        /* \"contract/ClaimContract_flattened.sol\":5352:5359  address */\n      0x00\n        /* \"contract/ClaimContract_flattened.sol\":5361:5373  RecoverError */\n      0x00\n        /* \"contract/ClaimContract_flattened.sol\":5375:5382  bytes32 */\n      0x00\n        /* \"contract/ClaimContract_flattened.sol\":6285:6351  0x7FFFFFFFFFFFFFFFFFFFFFFFFFFFFFFF5D576E7357A4501DDFE92F46681B20A0 */\n      0x7fffffffffffffffffffffffffffffff5d576e7357a4501ddfe92f46681b20a0\n        /* \"contract/ClaimContract_flattened.sol\":6280:6281  s */\n      dup5\n        /* \"contract/ClaimContract_flattened.sol\":6272:6282  uint256(s) */\n      0x00\n      shr\n        /* \"contract/ClaimContract_flattened.sol\":6272:6351  uint256(s) > 0x7FFFFFFFFFFFFFFFFFFFFFFFFFFFFFFF5D576E7357A4501DDFE92F46681B20A0 */\n      gt\n        /* \"contract/ClaimContract_flattened.sol\":6268:6432  if (uint256(s) > 0x7FFFFFFFFFFFFFFFFFFFFFFFFFFFFFFF5D576E7357A4501DDFE92F46681B20A0) {... */\n      iszero\n      tag_121\n      jumpi\n        /* \"contract/ClaimContract_flattened.sol\":6383:6384  0 */\n      0x00\n        /* \"contract/ClaimContract_flattened.sol\":6387:6417  RecoverError.InvalidSignatureS */\n      0x03\n        /* \"contract/ClaimContract_flattened.sol\":6419:6420  s */\n      dup6\n        /* \"contract/ClaimContract_flattened.sol\":6367:6421  return (address(0), RecoverError.InvalidSignatureS, s) */\n      swap3\n      pop\n      swap3\n      pop\n      swap3\n      pop\n      jump(tag_120)\n        /* \"contract/ClaimContract_flattened.sol\":6268:6432  if (uint256(s) > 0x7FFFFFFFFFFFFFFFFFFFFFFFFFFFFFFF5D576E7357A4501DDFE92F46681B20A0) {... */\n    tag_121:\n        /* \"contract/ClaimContract_flattened.sol\":6526:6540  address signer */\n      0x00\n        /* \"contract/ClaimContract_flattened.sol\":6543:6567  ecrecover(hash, v, r, s) */\n      0x01\n        /* \"contract/ClaimContract_flattened.sol\":6553:6557  hash */\n      dup9\n        /* \"contract/ClaimContract_flattened.sol\":6559:6560  v */\n      dup9\n        /* \"contract/ClaimContract_flattened.sol\":6562:6563  r */\n      dup9\n        /* \"contract/ClaimContract_flattened.sol\":6565:6566  s */\n      dup9\n        /* \"contract/ClaimContract_flattened.sol\":6543:6567  ecrecover(hash, v, r, s) */\n      mload(0x40)\n      0x00\n      dup2\n      mstore\n      0x20\n      add\n      0x40\n      mstore\n      mload(0x40)\n      tag_122\n      swap5\n      swap4\n      swap3\n      swap2\n      swap1\n      tag_123\n      jump\t// in\n    tag_122:\n      0x20\n      mload(0x40)\n      0x20\n      dup2\n      sub\n      swap1\n      dup1\n      dup5\n      sub\n      swap1\n      dup6\n      gas\n      staticcall\n      iszero\n      dup1\n      iszero\n      tag_125\n      jumpi\n      returndatacopy(0x00, 0x00, returndatasize)\n      revert(0x00, returndatasize)\n    tag_125:\n      pop\n      pop\n      pop\n      mload(sub(mload(0x40), 0x20))\n        /* \"contract/ClaimContract_flattened.sol\":6526:6567  address signer = ecrecover(hash, v, r, s) */\n      swap1\n      pop\n        /* \"contract/ClaimContract_flattened.sol\":6599:6600  0 */\n      0x00\n        /* \"contract/ClaimContract_flattened.sol\":6581:6601  signer == address(0) */\n      0xffffffffffffffffffffffffffffffffffffffff\n      and\n        /* \"contract/ClaimContract_flattened.sol\":6581:6587  signer */\n      dup2\n        /* \"contract/ClaimContract_flattened.sol\":6581:6601  signer == address(0) */\n      0xffffffffffffffffffffffffffffffffffffffff\n      and\n      sub\n        /* \"contract/ClaimContract_flattened.sol\":6577:6690  if (signer == address(0)) {... */\n      tag_126\n      jumpi\n        /* \"contract/ClaimContract_flattened.sol\":6633:6634  0 */\n      0x00\n        /* \"contract/ClaimContract_flattened.sol\":6637:6666  RecoverError.InvalidSignature */\n      0x01\n        /* \"contract/ClaimContract_flattened.sol\":6676:6677  0 */\n      0x00\n        /* \"contract/ClaimContract_flattened.sol\":6668:6678  bytes32(0) */\n      0x00\n      shl\n        /* \"contract/ClaimContract_flattened.sol\":6617:6679  return (address(0), RecoverError.InvalidSignature, bytes32(0)) */\n      swap4\n      pop\n      swap4\n      pop\n      swap4\n      pop\n      pop\n      jump(tag_120)\n        /* \"contract/ClaimContract_flattened.sol\":6577:6690  if (signer == address(0)) {... */\n    tag_126:\n        /* \"contract/ClaimContract_flattened.sol\":6708:6714  signer */\n      dup1\n        /* \"contract/ClaimContract_flattened.sol\":6716:6736  RecoverError.NoError */\n      0x00\n        /* \"contract/ClaimContract_flattened.sol\":6746:6747  0 */\n      0x00\n        /* \"contract/ClaimContract_flattened.sol\":6738:6748  bytes32(0) */\n      0x00\n      shl\n        /* \"contract/ClaimContract_flattened.sol\":6700:6749  return (signer, RecoverError.NoError, bytes32(0)) */\n      swap4\n      pop\n      swap4\n      pop\n      swap4\n      pop\n      pop\n        /* \"contract/ClaimContract_flattened.sol\":5226:6756  function tryRecover(... */\n    tag_120:\n      swap5\n      pop\n      swap5\n      pop\n      swap5\n      swap2\n      pop\n      pop\n      jump\t// out\n        /* \"#utility.yul\":7:82   */\n    tag_127:\n        /* \"#utility.yul\":40:46   */\n      0x00\n        /* \"#utility.yul\":73:75   */\n      0x40\n        /* \"#utility.yul\":67:76   */\n      mload\n        /* \"#utility.yul\":57:76   */\n      swap1\n      pop\n        /* \"#utility.yul\":7:82   */\n      swap1\n      jump\t// out\n        /* \"#utility.yul\":88:205   */\n    tag_128:\n        /* \"#utility.yul\":197:198   */\n      0x00\n        /* \"#utility.yul\":194:195   */\n      0x00\n        /* \"#utility.yul\":187:199   */\n      revert\n        /* \"#utility.yul\":211:328   */\n    tag_129:\n        /* \"#utility.yul\":320:321   */\n      0x00\n        /* \"#utility.yul\":317:318   */\n      0x00\n        /* \"#utility.yul\":310:322   */\n      revert\n        /* \"#utility.yul\":334:460   */\n    tag_130:\n        /* \"#utility.yul\":371:378   */\n      0x00\n        /* \"#utility.yul\":411:453   */\n      0xffffffffffffffffffffffffffffffffffffffff\n        /* \"#utility.yul\":404:409   */\n      dup3\n        /* \"#utility.yul\":400:454   */\n      and\n        /* \"#utility.yul\":389:454   */\n      swap1\n      pop\n        /* \"#utility.yul\":334:460   */\n      swap2\n      swap1\n      pop\n      jump\t// out\n        /* \"#utility.yul\":466:562   */\n    tag_131:\n        /* \"#utility.yul\":503:510   */\n      0x00\n        /* \"#utility.yul\":532:556   */\n      tag_173\n        /* \"#utility.yul\":550:555   */\n      dup3\n        /* \"#utility.yul\":532:556   */\n      tag_130\n      jump\t// in\n    tag_173:\n        /* \"#utility.yul\":521:556   */\n      swap1\n      pop\n        /* \"#utility.yul\":466:562   */\n      swap2\n      swap1\n      pop\n      jump\t// out\n        /* \"#utility.yul\":568:690   */\n    tag_132:\n        /* \"#utility.yul\":641:665   */\n      tag_175\n        /* \"#utility.yul\":659:664   */\n      dup2\n        /* \"#utility.yul\":641:665   */\n      tag_131\n      jump\t// in\n    tag_175:\n        /* \"#utility.yul\":634:639   */\n      dup2\n        /* \"#utility.yul\":631:666   */\n      eq\n        /* \"#utility.yul\":621:684   */\n      tag_176\n      jumpi\n        /* \"#utility.yul\":680:681   */\n      0x00\n        /* \"#utility.yul\":677:678   */\n      0x00\n        /* \"#utility.yul\":670:682   */\n      revert\n        /* \"#utility.yul\":621:684   */\n    tag_176:\n        /* \"#utility.yul\":568:690   */\n      pop\n      jump\t// out\n        /* \"#utility.yul\":696:835   */\n    tag_133:\n        /* \"#utility.yul\":742:747   */\n      0x00\n        /* \"#utility.yul\":780:786   */\n      dup2\n        /* \"#utility.yul\":767:787   */\n      calldataload\n        /* \"#utility.yul\":758:787   */\n      swap1\n      pop\n        /* \"#utility.yul\":796:829   */\n      tag_178\n        /* \"#utility.yul\":823:828   */\n      dup2\n        /* \"#utility.yul\":796:829   */\n      tag_132\n      jump\t// in\n    tag_178:\n        /* \"#utility.yul\":696:835   */\n      swap3\n      swap2\n      pop\n      pop\n      jump\t// out\n        /* \"#utility.yul\":841:918   */\n    tag_134:\n        /* \"#utility.yul\":878:885   */\n      0x00\n        /* \"#utility.yul\":907:912   */\n      dup2\n        /* \"#utility.yul\":896:912   */\n      swap1\n      pop\n        /* \"#utility.yul\":841:918   */\n      swap2\n      swap1\n      pop\n      jump\t// out\n        /* \"#utility.yul\":924:1046   */\n    tag_135:\n        /* \"#utility.yul\":997:1021   */\n      tag_181\n        /* \"#utility.yul\":1015:1020   */\n      dup2\n        /* \"#utility.yul\":997:1021   */\n      tag_134\n      jump\t// in\n    tag_181:\n        /* \"#utility.yul\":990:995   */\n      dup2\n        /* \"#utility.yul\":987:1022   */\n      eq\n        /* \"#utility.yul\":977:1040   */\n      tag_182\n      jumpi\n        /* \"#utility.yul\":1036:1037   */\n      0x00\n        /* \"#utility.yul\":1033:1034   */\n      0x00\n        /* \"#utility.yul\":1026:1038   */\n      revert\n        /* \"#utility.yul\":977:1040   */\n    tag_182:\n        /* \"#utility.yul\":924:1046   */\n      pop\n      jump\t// out\n        /* \"#utility.yul\":1052:1191   */\n    tag_136:\n        /* \"#utility.yul\":1098:1103   */\n      0x00\n        /* \"#utility.yul\":1136:1142   */\n      dup2\n        /* \"#utility.yul\":1123:1143   */\n      calldataload\n        /* \"#utility.yul\":1114:1143   */\n      swap1\n      pop\n        /* \"#utility.yul\":1152:1185   */\n      tag_184\n        /* \"#utility.yul\":1179:1184   */\n      dup2\n        /* \"#utility.yul\":1152:1185   */\n      tag_135\n      jump\t// in\n    tag_184:\n        /* \"#utility.yul\":1052:1191   */\n      swap3\n      swap2\n      pop\n      pop\n      jump\t// out\n        /* \"#utility.yul\":1197:1816   */\n    tag_11:\n        /* \"#utility.yul\":1274:1280   */\n      0x00\n        /* \"#utility.yul\":1282:1288   */\n      0x00\n        /* \"#utility.yul\":1290:1296   */\n      0x00\n        /* \"#utility.yul\":1339:1341   */\n      0x60\n        /* \"#utility.yul\":1327:1336   */\n      dup5\n        /* \"#utility.yul\":1318:1325   */\n      dup7\n        /* \"#utility.yul\":1314:1337   */\n      sub\n        /* \"#utility.yul\":1310:1342   */\n      slt\n        /* \"#utility.yul\":1307:1426   */\n      iszero\n      tag_186\n      jumpi\n        /* \"#utility.yul\":1345:1424   */\n      tag_187\n      tag_128\n      jump\t// in\n    tag_187:\n        /* \"#utility.yul\":1307:1426   */\n    tag_186:\n        /* \"#utility.yul\":1465:1466   */\n      0x00\n        /* \"#utility.yul\":1490:1543   */\n      tag_188\n        /* \"#utility.yul\":1535:1542   */\n      dup7\n        /* \"#utility.yul\":1526:1532   */\n      dup3\n        /* \"#utility.yul\":1515:1524   */\n      dup8\n        /* \"#utility.yul\":1511:1533   */\n      add\n        /* \"#utility.yul\":1490:1543   */\n      tag_133\n      jump\t// in\n    tag_188:\n        /* \"#utility.yul\":1480:1543   */\n      swap4\n      pop\n        /* \"#utility.yul\":1436:1553   */\n      pop\n        /* \"#utility.yul\":1592:1594   */\n      0x20\n        /* \"#utility.yul\":1618:1671   */\n      tag_189\n        /* \"#utility.yul\":1663:1670   */\n      dup7\n        /* \"#utility.yul\":1654:1660   */\n      dup3\n        /* \"#utility.yul\":1643:1652   */\n      dup8\n        /* \"#utility.yul\":1639:1661   */\n      add\n        /* \"#utility.yul\":1618:1671   */\n      tag_133\n      jump\t// in\n    tag_189:\n        /* \"#utility.yul\":1608:1671   */\n      swap3\n      pop\n        /* \"#utility.yul\":1563:1681   */\n      pop\n        /* \"#utility.yul\":1720:1722   */\n      0x40\n        /* \"#utility.yul\":1746:1799   */\n      tag_190\n        /* \"#utility.yul\":1791:1798   */\n      dup7\n        /* \"#utility.yul\":1782:1788   */\n      dup3\n        /* \"#utility.yul\":1771:1780   */\n      dup8\n        /* \"#utility.yul\":1767:1789   */\n      add\n        /* \"#utility.yul\":1746:1799   */\n      tag_136\n      jump\t// in\n    tag_190:\n        /* \"#utility.yul\":1736:1799   */\n      swap2\n      pop\n        /* \"#utility.yul\":1691:1809   */\n      pop\n        /* \"#utility.yul\":1197:1816   */\n      swap3\n      pop\n      swap3\n      pop\n      swap3\n      jump\t// out\n        /* \"#utility.yul\":1822:1939   */\n    tag_137:\n        /* \"#utility.yul\":1931:1932   */\n      0x00\n        /* \"#utility.yul\":1928:1929   */\n      0x00\n        /* \"#utility.yul\":1921:1933   */\n      revert\n        /* \"#utility.yul\":1945:2062   */\n    tag_138:\n        /* \"#utility.yul\":2054:2055   */\n      0x00\n        /* \"#utility.yul\":2051:2052   */\n      0x00\n        /* \"#utility.yul\":2044:2056   */\n      revert\n        /* \"#utility.yul\":2068:2170   */\n    tag_139:\n        /* \"#utility.yul\":2109:2115   */\n      0x00\n        /* \"#utility.yul\":2160:2162   */\n      0x1f\n        /* \"#utility.yul\":2156:2163   */\n      not\n        /* \"#utility.yul\":2151:2153   */\n      0x1f\n        /* \"#utility.yul\":2144:2149   */\n      dup4\n        /* \"#utility.yul\":2140:2154   */\n      add\n        /* \"#utility.yul\":2136:2164   */\n      and\n        /* \"#utility.yul\":2126:2164   */\n      swap1\n      pop\n        /* \"#utility.yul\":2068:2170   */\n      swap2\n      swap1\n      pop\n      jump\t// out\n        /* \"#utility.yul\":2176:2356   */\n    tag_140:\n        /* \"#utility.yul\":2224:2301   */\n      0x4e487b7100000000000000000000000000000000000000000000000000000000\n        /* \"#utility.yul\":2221:2222   */\n      0x00\n        /* \"#utility.yul\":2214:2302   */\n      mstore\n        /* \"#utility.yul\":2321:2325   */\n      0x41\n        /* \"#utility.yul\":2318:2319   */\n      0x04\n        /* \"#utility.yul\":2311:2326   */\n      mstore\n        /* \"#utility.yul\":2345:2349   */\n      0x24\n        /* \"#utility.yul\":2342:2343   */\n      0x00\n        /* \"#utility.yul\":2335:2350   */\n      revert\n        /* \"#utility.yul\":2362:2643   */\n    tag_141:\n        /* \"#utility.yul\":2445:2472   */\n      tag_196\n        /* \"#utility.yul\":2467:2471   */\n      dup3\n        /* \"#utility.yul\":2445:2472   */\n      tag_139\n      jump\t// in\n    tag_196:\n        /* \"#utility.yul\":2437:2443   */\n      dup2\n        /* \"#utility.yul\":2433:2473   */\n      add\n        /* \"#utility.yul\":2575:2581   */\n      dup2\n        /* \"#utility.yul\":2563:2573   */\n      dup2\n        /* \"#utility.yul\":2560:2582   */\n      lt\n        /* \"#utility.yul\":2539:2557   */\n      0xffffffffffffffff\n        /* \"#utility.yul\":2527:2537   */\n      dup3\n        /* \"#utility.yul\":2524:2558   */\n      gt\n        /* \"#utility.yul\":2521:2583   */\n      or\n        /* \"#utility.yul\":2518:2606   */\n      iszero\n      tag_197\n      jumpi\n        /* \"#utility.yul\":2586:2604   */\n      tag_198\n      tag_140\n      jump\t// in\n    tag_198:\n        /* \"#utility.yul\":2518:2606   */\n    tag_197:\n        /* \"#utility.yul\":2626:2636   */\n      dup1\n        /* \"#utility.yul\":2622:2624   */\n      0x40\n        /* \"#utility.yul\":2615:2637   */\n      mstore\n        /* \"#utility.yul\":2405:2643   */\n      pop\n        /* \"#utility.yul\":2362:2643   */\n      pop\n      pop\n      jump\t// out\n        /* \"#utility.yul\":2649:2778   */\n    tag_142:\n        /* \"#utility.yul\":2683:2689   */\n      0x00\n        /* \"#utility.yul\":2710:2730   */\n      tag_200\n      tag_127\n      jump\t// in\n    tag_200:\n        /* \"#utility.yul\":2700:2730   */\n      swap1\n      pop\n        /* \"#utility.yul\":2739:2772   */\n      tag_201\n        /* \"#utility.yul\":2767:2771   */\n      dup3\n        /* \"#utility.yul\":2759:2765   */\n      dup3\n        /* \"#utility.yul\":2739:2772   */\n      tag_141\n      jump\t// in\n    tag_201:\n        /* \"#utility.yul\":2649:2778   */\n      swap2\n      swap1\n      pop\n      jump\t// out\n        /* \"#utility.yul\":2784:3091   */\n    tag_143:\n        /* \"#utility.yul\":2845:2849   */\n      0x00\n        /* \"#utility.yul\":2935:2953   */\n      0xffffffffffffffff\n        /* \"#utility.yul\":2927:2933   */\n      dup3\n        /* \"#utility.yul\":2924:2954   */\n      gt\n        /* \"#utility.yul\":2921:2977   */\n      iszero\n      tag_203\n      jumpi\n        /* \"#utility.yul\":2957:2975   */\n      tag_204\n      tag_140\n      jump\t// in\n    tag_204:\n        /* \"#utility.yul\":2921:2977   */\n    tag_203:\n        /* \"#utility.yul\":2995:3024   */\n      tag_205\n        /* \"#utility.yul\":3017:3023   */\n      dup3\n        /* \"#utility.yul\":2995:3024   */\n      tag_139\n      jump\t// in\n    tag_205:\n        /* \"#utility.yul\":2987:3024   */\n      swap1\n      pop\n        /* \"#utility.yul\":3079:3083   */\n      0x20\n        /* \"#utility.yul\":3073:3077   */\n      dup2\n        /* \"#utility.yul\":3069:3084   */\n      add\n        /* \"#utility.yul\":3061:3084   */\n      swap1\n      pop\n        /* \"#utility.yul\":2784:3091   */\n      swap2\n      swap1\n      pop\n      jump\t// out\n        /* \"#utility.yul\":3097:3245   */\n    tag_144:\n        /* \"#utility.yul\":3195:3201   */\n      dup3\n        /* \"#utility.yul\":3190:3193   */\n      dup2\n        /* \"#utility.yul\":3185:3188   */\n      dup4\n        /* \"#utility.yul\":3172:3202   */\n      calldatacopy\n        /* \"#utility.yul\":3236:3237   */\n      0x00\n        /* \"#utility.yul\":3227:3233   */\n      dup4\n        /* \"#utility.yul\":3222:3225   */\n      dup4\n        /* \"#utility.yul\":3218:3234   */\n      add\n        /* \"#utility.yul\":3211:3238   */\n      mstore\n        /* \"#utility.yul\":3097:3245   */\n      pop\n      pop\n      pop\n      jump\t// out\n        /* \"#utility.yul\":3251:3674   */\n    tag_145:\n        /* \"#utility.yul\":3328:3333   */\n      0x00\n        /* \"#utility.yul\":3353:3418   */\n      tag_208\n        /* \"#utility.yul\":3369:3417   */\n      tag_209\n        /* \"#utility.yul\":3410:3416   */\n      dup5\n        /* \"#utility.yul\":3369:3417   */\n      tag_143\n      jump\t// in\n    tag_209:\n        /* \"#utility.yul\":3353:3418   */\n      tag_142\n      jump\t// in\n    tag_208:\n        /* \"#utility.yul\":3344:3418   */\n      swap1\n      pop\n        /* \"#utility.yul\":3441:3447   */\n      dup3\n        /* \"#utility.yul\":3434:3439   */\n      dup2\n        /* \"#utility.yul\":3427:3448   */\n      mstore\n        /* \"#utility.yul\":3479:3483   */\n      0x20\n        /* \"#utility.yul\":3472:3477   */\n      dup2\n        /* \"#utility.yul\":3468:3484   */\n      add\n        /* \"#utility.yul\":3517:3520   */\n      dup5\n        /* \"#utility.yul\":3508:3514   */\n      dup5\n        /* \"#utility.yul\":3503:3506   */\n      dup5\n        /* \"#utility.yul\":3499:3515   */\n      add\n        /* \"#utility.yul\":3496:3521   */\n      gt\n        /* \"#utility.yul\":3493:3605   */\n      iszero\n      tag_210\n      jumpi\n        /* \"#utility.yul\":3524:3603   */\n      tag_211\n      tag_138\n      jump\t// in\n    tag_211:\n        /* \"#utility.yul\":3493:3605   */\n    tag_210:\n        /* \"#utility.yul\":3614:3668   */\n      tag_212\n        /* \"#utility.yul\":3661:3667   */\n      dup5\n        /* \"#utility.yul\":3656:3659   */\n      dup3\n        /* \"#utility.yul\":3651:3654   */\n      dup6\n        /* \"#utility.yul\":3614:3668   */\n      tag_144\n      jump\t// in\n    tag_212:\n        /* \"#utility.yul\":3334:3674   */\n      pop\n        /* \"#utility.yul\":3251:3674   */\n      swap4\n      swap3\n      pop\n      pop\n      pop\n      jump\t// out\n        /* \"#utility.yul\":3693:4031   */\n    tag_146:\n        /* \"#utility.yul\":3748:3753   */\n      0x00\n        /* \"#utility.yul\":3797:3800   */\n      dup3\n        /* \"#utility.yul\":3790:3794   */\n      0x1f\n        /* \"#utility.yul\":3782:3788   */\n      dup4\n        /* \"#utility.yul\":3778:3795   */\n      add\n        /* \"#utility.yul\":3774:3801   */\n      slt\n        /* \"#utility.yul\":3764:3886   */\n      tag_214\n      jumpi\n        /* \"#utility.yul\":3805:3884   */\n      tag_215\n      tag_137\n      jump\t// in\n    tag_215:\n        /* \"#utility.yul\":3764:3886   */\n    tag_214:\n        /* \"#utility.yul\":3922:3928   */\n      dup2\n        /* \"#utility.yul\":3909:3929   */\n      calldataload\n        /* \"#utility.yul\":3947:4025   */\n      tag_216\n        /* \"#utility.yul\":4021:4024   */\n      dup5\n        /* \"#utility.yul\":4013:4019   */\n      dup3\n        /* \"#utility.yul\":4006:4010   */\n      0x20\n        /* \"#utility.yul\":3998:4004   */\n      dup7\n        /* \"#utility.yul\":3994:4011   */\n      add\n        /* \"#utility.yul\":3947:4025   */\n      tag_145\n      jump\t// in\n    tag_216:\n        /* \"#utility.yul\":3938:4025   */\n      swap2\n      pop\n        /* \"#utility.yul\":3754:4031   */\n      pop\n        /* \"#utility.yul\":3693:4031   */\n      swap3\n      swap2\n      pop\n      pop\n      jump\t// out\n        /* \"#utility.yul\":4037:4980   */\n    tag_15:\n        /* \"#utility.yul\":4132:4138   */\n      0x00\n        /* \"#utility.yul\":4140:4146   */\n      0x00\n        /* \"#utility.yul\":4148:4154   */\n      0x00\n        /* \"#utility.yul\":4156:4162   */\n      0x00\n        /* \"#utility.yul\":4205:4208   */\n      0x80\n        /* \"#utility.yul\":4193:4202   */\n      dup6\n        /* \"#utility.yul\":4184:4191   */\n      dup8\n        /* \"#utility.yul\":4180:4203   */\n      sub\n        /* \"#utility.yul\":4176:4209   */\n      slt\n        /* \"#utility.yul\":4173:4293   */\n      iszero\n      tag_218\n      jumpi\n        /* \"#utility.yul\":4212:4291   */\n      tag_219\n      tag_128\n      jump\t// in\n    tag_219:\n        /* \"#utility.yul\":4173:4293   */\n    tag_218:\n        /* \"#utility.yul\":4332:4333   */\n      0x00\n        /* \"#utility.yul\":4357:4410   */\n      tag_220\n        /* \"#utility.yul\":4402:4409   */\n      dup8\n        /* \"#utility.yul\":4393:4399   */\n      dup3\n        /* \"#utility.yul\":4382:4391   */\n      dup9\n        /* \"#utility.yul\":4378:4400   */\n      add\n        /* \"#utility.yul\":4357:4410   */\n      tag_133\n      jump\t// in\n    tag_220:\n        /* \"#utility.yul\":4347:4410   */\n      swap5\n      pop\n        /* \"#utility.yul\":4303:4420   */\n      pop\n        /* \"#utility.yul\":4459:4461   */\n      0x20\n        /* \"#utility.yul\":4485:4538   */\n      tag_221\n        /* \"#utility.yul\":4530:4537   */\n      dup8\n        /* \"#utility.yul\":4521:4527   */\n      dup3\n        /* \"#utility.yul\":4510:4519   */\n      dup9\n        /* \"#utility.yul\":4506:4528   */\n      add\n        /* \"#utility.yul\":4485:4538   */\n      tag_136\n      jump\t// in\n    tag_221:\n        /* \"#utility.yul\":4475:4538   */\n      swap4\n      pop\n        /* \"#utility.yul\":4430:4548   */\n      pop\n        /* \"#utility.yul\":4587:4589   */\n      0x40\n        /* \"#utility.yul\":4613:4666   */\n      tag_222\n        /* \"#utility.yul\":4658:4665   */\n      dup8\n        /* \"#utility.yul\":4649:4655   */\n      dup3\n        /* \"#utility.yul\":4638:4647   */\n      dup9\n        /* \"#utility.yul\":4634:4656   */\n      add\n        /* \"#utility.yul\":4613:4666   */\n      tag_136\n      jump\t// in\n    tag_222:\n        /* \"#utility.yul\":4603:4666   */\n      swap3\n      pop\n        /* \"#utility.yul\":4558:4676   */\n      pop\n        /* \"#utility.yul\":4743:4745   */\n      0x60\n        /* \"#utility.yul\":4732:4741   */\n      dup6\n        /* \"#utility.yul\":4728:4746   */\n      add\n        /* \"#utility.yul\":4715:4747   */\n      calldataload\n        /* \"#utility.yul\":4774:4792   */\n      0xffffffffffffffff\n        /* \"#utility.yul\":4766:4772   */\n      dup2\n        /* \"#utility.yul\":4763:4793   */\n      gt\n        /* \"#utility.yul\":4760:4877   */\n      iszero\n      tag_223\n      jumpi\n        /* \"#utility.yul\":4796:4875   */\n      tag_224\n      tag_129\n      jump\t// in\n    tag_224:\n        /* \"#utility.yul\":4760:4877   */\n    tag_223:\n        /* \"#utility.yul\":4901:4963   */\n      tag_225\n        /* \"#utility.yul\":4955:4962   */\n      dup8\n        /* \"#utility.yul\":4946:4952   */\n      dup3\n        /* \"#utility.yul\":4935:4944   */\n      dup9\n        /* \"#utility.yul\":4931:4953   */\n      add\n        /* \"#utility.yul\":4901:4963   */\n      tag_146\n      jump\t// in\n    tag_225:\n        /* \"#utility.yul\":4891:4963   */\n      swap2\n      pop\n        /* \"#utility.yul\":4686:4973   */\n      pop\n        /* \"#utility.yul\":4037:4980   */\n      swap3\n      swap6\n      swap2\n      swap5\n      pop\n      swap3\n      pop\n      jump\t// out\n        /* \"#utility.yul\":4986:5104   */\n    tag_147:\n        /* \"#utility.yul\":5073:5097   */\n      tag_227\n        /* \"#utility.yul\":5091:5096   */\n      dup2\n        /* \"#utility.yul\":5073:5097   */\n      tag_131\n      jump\t// in\n    tag_227:\n        /* \"#utility.yul\":5068:5071   */\n      dup3\n        /* \"#utility.yul\":5061:5098   */\n      mstore\n        /* \"#utility.yul\":4986:5104   */\n      pop\n      pop\n      jump\t// out\n        /* \"#utility.yul\":5110:5332   */\n    tag_22:\n        /* \"#utility.yul\":5203:5207   */\n      0x00\n        /* \"#utility.yul\":5241:5243   */\n      0x20\n        /* \"#utility.yul\":5230:5239   */\n      dup3\n        /* \"#utility.yul\":5226:5244   */\n      add\n        /* \"#utility.yul\":5218:5244   */\n      swap1\n      pop\n        /* \"#utility.yul\":5254:5325   */\n      tag_229\n        /* \"#utility.yul\":5322:5323   */\n      0x00\n        /* \"#utility.yul\":5311:5320   */\n      dup4\n        /* \"#utility.yul\":5307:5324   */\n      add\n        /* \"#utility.yul\":5298:5304   */\n      dup5\n        /* \"#utility.yul\":5254:5325   */\n      tag_147\n      jump\t// in\n    tag_229:\n        /* \"#utility.yul\":5110:5332   */\n      swap3\n      swap2\n      pop\n      pop\n      jump\t// out\n        /* \"#utility.yul\":5338:5667   */\n    tag_25:\n        /* \"#utility.yul\":5397:5403   */\n      0x00\n        /* \"#utility.yul\":5446:5448   */\n      0x20\n        /* \"#utility.yul\":5434:5443   */\n      dup3\n        /* \"#utility.yul\":5425:5432   */\n      dup5\n        /* \"#utility.yul\":5421:5444   */\n      sub\n        /* \"#utility.yul\":5417:5449   */\n      slt\n        /* \"#utility.yul\":5414:5533   */\n      iszero\n      tag_231\n      jumpi\n        /* \"#utility.yul\":5452:5531   */\n      tag_232\n      tag_128\n      jump\t// in\n    tag_232:\n        /* \"#utility.yul\":5414:5533   */\n    tag_231:\n        /* \"#utility.yul\":5572:5573   */\n      0x00\n        /* \"#utility.yul\":5597:5650   */\n      tag_233\n        /* \"#utility.yul\":5642:5649   */\n      dup5\n        /* \"#utility.yul\":5633:5639   */\n      dup3\n        /* \"#utility.yul\":5622:5631   */\n      dup6\n        /* \"#utility.yul\":5618:5640   */\n      add\n        /* \"#utility.yul\":5597:5650   */\n      tag_133\n      jump\t// in\n    tag_233:\n        /* \"#utility.yul\":5587:5650   */\n      swap2\n      pop\n        /* \"#utility.yul\":5543:5660   */\n      pop\n        /* \"#utility.yul\":5338:5667   */\n      swap3\n      swap2\n      pop\n      pop\n      jump\t// out\n        /* \"#utility.yul\":5673:5791   */\n    tag_148:\n        /* \"#utility.yul\":5760:5784   */\n      tag_235\n        /* \"#utility.yul\":5778:5783   */\n      dup2\n        /* \"#utility.yul\":5760:5784   */\n      tag_134\n      jump\t// in\n    tag_235:\n        /* \"#utility.yul\":5755:5758   */\n      dup3\n        /* \"#utility.yul\":5748:5785   */\n      mstore\n        /* \"#utility.yul\":5673:5791   */\n      pop\n      pop\n      jump\t// out\n        /* \"#utility.yul\":5797:6129   */\n    tag_35:\n        /* \"#utility.yul\":5918:5922   */\n      0x00\n        /* \"#utility.yul\":5956:5958   */\n      0x40\n        /* \"#utility.yul\":5945:5954   */\n      dup3\n        /* \"#utility.yul\":5941:5959   */\n      add\n        /* \"#utility.yul\":5933:5959   */\n      swap1\n      pop\n        /* \"#utility.yul\":5969:6040   */\n      tag_237\n        /* \"#utility.yul\":6037:6038   */\n      0x00\n        /* \"#utility.yul\":6026:6035   */\n      dup4\n        /* \"#utility.yul\":6022:6039   */\n      add\n        /* \"#utility.yul\":6013:6019   */\n      dup6\n        /* \"#utility.yul\":5969:6040   */\n      tag_147\n      jump\t// in\n    tag_237:\n        /* \"#utility.yul\":6050:6122   */\n      tag_238\n        /* \"#utility.yul\":6118:6120   */\n      0x20\n        /* \"#utility.yul\":6107:6116   */\n      dup4\n        /* \"#utility.yul\":6103:6121   */\n      add\n        /* \"#utility.yul\":6094:6100   */\n      dup5\n        /* \"#utility.yul\":6050:6122   */\n      tag_148\n      jump\t// in\n    tag_238:\n        /* \"#utility.yul\":5797:6129   */\n      swap4\n      swap3\n      pop\n      pop\n      pop\n      jump\t// out\n        /* \"#utility.yul\":6135:6225   */\n    tag_149:\n        /* \"#utility.yul\":6169:6176   */\n      0x00\n        /* \"#utility.yul\":6212:6217   */\n      dup2\n        /* \"#utility.yul\":6205:6218   */\n      iszero\n        /* \"#utility.yul\":6198:6219   */\n      iszero\n        /* \"#utility.yul\":6187:6219   */\n      swap1\n      pop\n        /* \"#utility.yul\":6135:6225   */\n      swap2\n      swap1\n      pop\n      jump\t// out\n        /* \"#utility.yul\":6231:6347   */\n    tag_150:\n        /* \"#utility.yul\":6301:6322   */\n      tag_241\n        /* \"#utility.yul\":6316:6321   */\n      dup2\n        /* \"#utility.yul\":6301:6322   */\n      tag_149\n      jump\t// in\n    tag_241:\n        /* \"#utility.yul\":6294:6299   */\n      dup2\n        /* \"#utility.yul\":6291:6323   */\n      eq\n        /* \"#utility.yul\":6281:6341   */\n      tag_242\n      jumpi\n        /* \"#utility.yul\":6337:6338   */\n      0x00\n        /* \"#utility.yul\":6334:6335   */\n      0x00\n        /* \"#utility.yul\":6327:6339   */\n      revert\n        /* \"#utility.yul\":6281:6341   */\n    tag_242:\n        /* \"#utility.yul\":6231:6347   */\n      pop\n      jump\t// out\n        /* \"#utility.yul\":6353:6490   */\n    tag_151:\n        /* \"#utility.yul\":6407:6412   */\n      0x00\n        /* \"#utility.yul\":6438:6444   */\n      dup2\n        /* \"#utility.yul\":6432:6445   */\n      mload\n        /* \"#utility.yul\":6423:6445   */\n      swap1\n      pop\n        /* \"#utility.yul\":6454:6484   */\n      tag_244\n        /* \"#utility.yul\":6478:6483   */\n      dup2\n        /* \"#utility.yul\":6454:6484   */\n      tag_150\n      jump\t// in\n    tag_244:\n        /* \"#utility.yul\":6353:6490   */\n      swap3\n      swap2\n      pop\n      pop\n      jump\t// out\n        /* \"#utility.yul\":6496:6841   */\n    tag_39:\n        /* \"#utility.yul\":6563:6569   */\n      0x00\n        /* \"#utility.yul\":6612:6614   */\n      0x20\n        /* \"#utility.yul\":6600:6609   */\n      dup3\n        /* \"#utility.yul\":6591:6598   */\n      dup5\n        /* \"#utility.yul\":6587:6610   */\n      sub\n        /* \"#utility.yul\":6583:6615   */\n      slt\n        /* \"#utility.yul\":6580:6699   */\n      iszero\n      tag_246\n      jumpi\n        /* \"#utility.yul\":6618:6697   */\n      tag_247\n      tag_128\n      jump\t// in\n    tag_247:\n        /* \"#utility.yul\":6580:6699   */\n    tag_246:\n        /* \"#utility.yul\":6738:6739   */\n      0x00\n        /* \"#utility.yul\":6763:6824   */\n      tag_248\n        /* \"#utility.yul\":6816:6823   */\n      dup5\n        /* \"#utility.yul\":6807:6813   */\n      dup3\n        /* \"#utility.yul\":6796:6805   */\n      dup6\n        /* \"#utility.yul\":6792:6814   */\n      add\n        /* \"#utility.yul\":6763:6824   */\n      tag_151\n      jump\t// in\n    tag_248:\n        /* \"#utility.yul\":6753:6824   */\n      swap2\n      pop\n        /* \"#utility.yul\":6709:6834   */\n      pop\n        /* \"#utility.yul\":6496:6841   */\n      swap3\n      swap2\n      pop\n      pop\n      jump\t// out\n        /* \"#utility.yul\":6847:7016   */\n    tag_152:\n        /* \"#utility.yul\":6931:6942   */\n      0x00\n        /* \"#utility.yul\":6965:6971   */\n      dup3\n        /* \"#utility.yul\":6960:6963   */\n      dup3\n        /* \"#utility.yul\":6953:6972   */\n      mstore\n        /* \"#utility.yul\":7005:7009   */\n      0x20\n        /* \"#utility.yul\":7000:7003   */\n      dup3\n        /* \"#utility.yul\":6996:7010   */\n      add\n        /* \"#utility.yul\":6981:7010   */\n      swap1\n      pop\n        /* \"#utility.yul\":6847:7016   */\n      swap3\n      swap2\n      pop\n      pop\n      jump\t// out\n        /* \"#utility.yul\":7022:7252   */\n    tag_153:\n        /* \"#utility.yul\":7162:7196   */\n      0x436c61696d436f6e74726163743a204e6f6e63652068617320616c7265616479\n        /* \"#utility.yul\":7158:7159   */\n      0x00\n        /* \"#utility.yul\":7150:7156   */\n      dup3\n        /* \"#utility.yul\":7146:7160   */\n      add\n        /* \"#utility.yul\":7139:7197   */\n      mstore\n        /* \"#utility.yul\":7231:7244   */\n      0x206265656e20757365642e000000000000000000000000000000000000000000\n        /* \"#utility.yul\":7226:7228   */\n      0x20\n        /* \"#utility.yul\":7218:7224   */\n      dup3\n        /* \"#utility.yul\":7214:7229   */\n      add\n        /* \"#utility.yul\":7207:7245   */\n      mstore\n        /* \"#utility.yul\":7022:7252   */\n      pop\n      jump\t// out\n        /* \"#utility.yul\":7258:7624   */\n    tag_154:\n        /* \"#utility.yul\":7400:7403   */\n      0x00\n        /* \"#utility.yul\":7421:7488   */\n      tag_252\n        /* \"#utility.yul\":7485:7487   */\n      0x2b\n        /* \"#utility.yul\":7480:7483   */\n      dup4\n        /* \"#utility.yul\":7421:7488   */\n      tag_152\n      jump\t// in\n    tag_252:\n        /* \"#utility.yul\":7414:7488   */\n      swap2\n      pop\n        /* \"#utility.yul\":7497:7590   */\n      tag_253\n        /* \"#utility.yul\":7586:7589   */\n      dup3\n        /* \"#utility.yul\":7497:7590   */\n      tag_153\n      jump\t// in\n    tag_253:\n        /* \"#utility.yul\":7615:7617   */\n      0x40\n        /* \"#utility.yul\":7610:7613   */\n      dup3\n        /* \"#utility.yul\":7606:7618   */\n      add\n        /* \"#utility.yul\":7599:7618   */\n      swap1\n      pop\n        /* \"#utility.yul\":7258:7624   */\n      swap2\n      swap1\n      pop\n      jump\t// out\n        /* \"#utility.yul\":7630:8049   */\n    tag_43:\n        /* \"#utility.yul\":7796:7800   */\n      0x00\n        /* \"#utility.yul\":7834:7836   */\n      0x20\n        /* \"#utility.yul\":7823:7832   */\n      dup3\n        /* \"#utility.yul\":7819:7837   */\n      add\n        /* \"#utility.yul\":7811:7837   */\n      swap1\n      pop\n        /* \"#utility.yul\":7883:7892   */\n      dup2\n        /* \"#utility.yul\":7877:7881   */\n      dup2\n        /* \"#utility.yul\":7873:7893   */\n      sub\n        /* \"#utility.yul\":7869:7870   */\n      0x00\n        /* \"#utility.yul\":7858:7867   */\n      dup4\n        /* \"#utility.yul\":7854:7871   */\n      add\n        /* \"#utility.yul\":7847:7894   */\n      mstore\n        /* \"#utility.yul\":7911:8042   */\n      tag_255\n        /* \"#utility.yul\":8037:8041   */\n      dup2\n        /* \"#utility.yul\":7911:8042   */\n      tag_154\n      jump\t// in\n    tag_255:\n        /* \"#utility.yul\":7903:8042   */\n      swap1\n      pop\n        /* \"#utility.yul\":7630:8049   */\n      swap2\n      swap1\n      pop\n      jump\t// out\n        /* \"#utility.yul\":8055:8149   */\n    tag_155:\n        /* \"#utility.yul\":8088:8096   */\n      0x00\n        /* \"#utility.yul\":8136:8141   */\n      dup2\n        /* \"#utility.yul\":8132:8134   */\n      0x60\n        /* \"#utility.yul\":8128:8142   */\n      shl\n        /* \"#utility.yul\":8107:8142   */\n      swap1\n      pop\n        /* \"#utility.yul\":8055:8149   */\n      swap2\n      swap1\n      pop\n      jump\t// out\n        /* \"#utility.yul\":8155:8249   */\n    tag_156:\n        /* \"#utility.yul\":8194:8201   */\n      0x00\n        /* \"#utility.yul\":8223:8243   */\n      tag_258\n        /* \"#utility.yul\":8237:8242   */\n      dup3\n        /* \"#utility.yul\":8223:8243   */\n      tag_155\n      jump\t// in\n    tag_258:\n        /* \"#utility.yul\":8212:8243   */\n      swap1\n      pop\n        /* \"#utility.yul\":8155:8249   */\n      swap2\n      swap1\n      pop\n      jump\t// out\n        /* \"#utility.yul\":8255:8355   */\n    tag_157:\n        /* \"#utility.yul\":8294:8301   */\n      0x00\n        /* \"#utility.yul\":8323:8349   */\n      tag_260\n        /* \"#utility.yul\":8343:8348   */\n      dup3\n        /* \"#utility.yul\":8323:8349   */\n      tag_156\n      jump\t// in\n    tag_260:\n        /* \"#utility.yul\":8312:8349   */\n      swap1\n      pop\n        /* \"#utility.yul\":8255:8355   */\n      swap2\n      swap1\n      pop\n      jump\t// out\n        /* \"#utility.yul\":8361:8518   */\n    tag_158:\n        /* \"#utility.yul\":8466:8511   */\n      tag_262\n        /* \"#utility.yul\":8486:8510   */\n      tag_263\n        /* \"#utility.yul\":8504:8509   */\n      dup3\n        /* \"#utility.yul\":8486:8510   */\n      tag_131\n      jump\t// in\n    tag_263:\n        /* \"#utility.yul\":8466:8511   */\n      tag_157\n      jump\t// in\n    tag_262:\n        /* \"#utility.yul\":8461:8464   */\n      dup3\n        /* \"#utility.yul\":8454:8512   */\n      mstore\n        /* \"#utility.yul\":8361:8518   */\n      pop\n      pop\n      jump\t// out\n        /* \"#utility.yul\":8524:8603   */\n    tag_159:\n        /* \"#utility.yul\":8563:8570   */\n      0x00\n        /* \"#utility.yul\":8592:8597   */\n      dup2\n        /* \"#utility.yul\":8581:8597   */\n      swap1\n      pop\n        /* \"#utility.yul\":8524:8603   */\n      swap2\n      swap1\n      pop\n      jump\t// out\n        /* \"#utility.yul\":8609:8766   */\n    tag_160:\n        /* \"#utility.yul\":8714:8759   */\n      tag_266\n        /* \"#utility.yul\":8734:8758   */\n      tag_267\n        /* \"#utility.yul\":8752:8757   */\n      dup3\n        /* \"#utility.yul\":8734:8758   */\n      tag_134\n      jump\t// in\n    tag_267:\n        /* \"#utility.yul\":8714:8759   */\n      tag_159\n      jump\t// in\n    tag_266:\n        /* \"#utility.yul\":8709:8712   */\n      dup3\n        /* \"#utility.yul\":8702:8760   */\n      mstore\n        /* \"#utility.yul\":8609:8766   */\n      pop\n      pop\n      jump\t// out\n        /* \"#utility.yul\":8772:9451   */\n    tag_45:\n        /* \"#utility.yul\":8968:8971   */\n      0x00\n        /* \"#utility.yul\":8983:9058   */\n      tag_269\n        /* \"#utility.yul\":9054:9057   */\n      dup3\n        /* \"#utility.yul\":9045:9051   */\n      dup8\n        /* \"#utility.yul\":8983:9058   */\n      tag_158\n      jump\t// in\n    tag_269:\n        /* \"#utility.yul\":9083:9085   */\n      0x14\n        /* \"#utility.yul\":9078:9081   */\n      dup3\n        /* \"#utility.yul\":9074:9086   */\n      add\n        /* \"#utility.yul\":9067:9086   */\n      swap2\n      pop\n        /* \"#utility.yul\":9096:9171   */\n      tag_270\n        /* \"#utility.yul\":9167:9170   */\n      dup3\n        /* \"#utility.yul\":9158:9164   */\n      dup7\n        /* \"#utility.yul\":9096:9171   */\n      tag_158\n      jump\t// in\n    tag_270:\n        /* \"#utility.yul\":9196:9198   */\n      0x14\n        /* \"#utility.yul\":9191:9194   */\n      dup3\n        /* \"#utility.yul\":9187:9199   */\n      add\n        /* \"#utility.yul\":9180:9199   */\n      swap2\n      pop\n        /* \"#utility.yul\":9209:9284   */\n      tag_271\n        /* \"#utility.yul\":9280:9283   */\n      dup3\n        /* \"#utility.yul\":9271:9277   */\n      dup6\n        /* \"#utility.yul\":9209:9284   */\n      tag_160\n      jump\t// in\n    tag_271:\n        /* \"#utility.yul\":9309:9311   */\n      0x20\n        /* \"#utility.yul\":9304:9307   */\n      dup3\n        /* \"#utility.yul\":9300:9312   */\n      add\n        /* \"#utility.yul\":9293:9312   */\n      swap2\n      pop\n        /* \"#utility.yul\":9322:9397   */\n      tag_272\n        /* \"#utility.yul\":9393:9396   */\n      dup3\n        /* \"#utility.yul\":9384:9390   */\n      dup5\n        /* \"#utility.yul\":9322:9397   */\n      tag_160\n      jump\t// in\n    tag_272:\n        /* \"#utility.yul\":9422:9424   */\n      0x20\n        /* \"#utility.yul\":9417:9420   */\n      dup3\n        /* \"#utility.yul\":9413:9425   */\n      add\n        /* \"#utility.yul\":9406:9425   */\n      swap2\n      pop\n        /* \"#utility.yul\":9442:9445   */\n      dup2\n        /* \"#utility.yul\":9435:9445   */\n      swap1\n      pop\n        /* \"#utility.yul\":8772:9451   */\n      swap6\n      swap5\n      pop\n      pop\n      pop\n      pop\n      pop\n      jump\t// out\n        /* \"#utility.yul\":9457:9677   */\n    tag_161:\n        /* \"#utility.yul\":9597:9631   */\n      0x436c61696d436f6e74726163743a20496e76616c6964207369676e6174757265\n        /* \"#utility.yul\":9593:9594   */\n      0x00\n        /* \"#utility.yul\":9585:9591   */\n      dup3\n        /* \"#utility.yul\":9581:9595   */\n      add\n        /* \"#utility.yul\":9574:9632   */\n      mstore\n        /* \"#utility.yul\":9666:9669   */\n      0x2e00000000000000000000000000000000000000000000000000000000000000\n        /* \"#utility.yul\":9661:9663   */\n      0x20\n        /* \"#utility.yul\":9653:9659   */\n      dup3\n        /* \"#utility.yul\":9649:9664   */\n      add\n        /* \"#utility.yul\":9642:9670   */\n      mstore\n        /* \"#utility.yul\":9457:9677   */\n      pop\n      jump\t// out\n        /* \"#utility.yul\":9683:10049   */\n    tag_162:\n        /* \"#utility.yul\":9825:9828   */\n      0x00\n        /* \"#utility.yul\":9846:9913   */\n      tag_275\n        /* \"#utility.yul\":9910:9912   */\n      0x21\n        /* \"#utility.yul\":9905:9908   */\n      dup4\n        /* \"#utility.yul\":9846:9913   */\n      tag_152\n      jump\t// in\n    tag_275:\n        /* \"#utility.yul\":9839:9913   */\n      swap2\n      pop\n        /* \"#utility.yul\":9922:10015   */\n      tag_276\n        /* \"#utility.yul\":10011:10014   */\n      dup3\n        /* \"#utility.yul\":9922:10015   */\n      tag_161\n      jump\t// in\n    tag_276:\n        /* \"#utility.yul\":10040:10042   */\n      0x40\n        /* \"#utility.yul\":10035:10038   */\n      dup3\n        /* \"#utility.yul\":10031:10043   */\n      add\n        /* \"#utility.yul\":10024:10043   */\n      swap1\n      pop\n        /* \"#utility.yul\":9683:10049   */\n      swap2\n      swap1\n      pop\n      jump\t// out\n        /* \"#utility.yul\":10055:10474   */\n    tag_50:\n        /* \"#utility.yul\":10221:10225   */\n      0x00\n        /* \"#utility.yul\":10259:10261   */\n      0x20\n        /* \"#utility.yul\":10248:10257   */\n      dup3\n        /* \"#utility.yul\":10244:10262   */\n      add\n        /* \"#utility.yul\":10236:10262   */\n      swap1\n      pop\n        /* \"#utility.yul\":10308:10317   */\n      dup2\n        /* \"#utility.yul\":10302:10306   */\n      dup2\n        /* \"#utility.yul\":10298:10318   */\n      sub\n        /* \"#utility.yul\":10294:10295   */\n      0x00\n        /* \"#utility.yul\":10283:10292   */\n      dup4\n        /* \"#utility.yul\":10279:10296   */\n      add\n        /* \"#utility.yul\":10272:10319   */\n      mstore\n        /* \"#utility.yul\":10336:10467   */\n      tag_278\n        /* \"#utility.yul\":10462:10466   */\n      dup2\n        /* \"#utility.yul\":10336:10467   */\n      tag_162\n      jump\t// in\n    tag_278:\n        /* \"#utility.yul\":10328:10467   */\n      swap1\n      pop\n        /* \"#utility.yul\":10055:10474   */\n      swap2\n      swap1\n      pop\n      jump\t// out\n        /* \"#utility.yul\":10480:10812   */\n    tag_56:\n        /* \"#utility.yul\":10601:10605   */\n      0x00\n        /* \"#utility.yul\":10639:10641   */\n      0x40\n        /* \"#utility.yul\":10628:10637   */\n      dup3\n        /* \"#utility.yul\":10624:10642   */\n      add\n        /* \"#utility.yul\":10616:10642   */\n      swap1\n      pop\n        /* \"#utility.yul\":10652:10723   */\n      tag_280\n        /* \"#utility.yul\":10720:10721   */\n      0x00\n        /* \"#utility.yul\":10709:10718   */\n      dup4\n        /* \"#utility.yul\":10705:10722   */\n      add\n        /* \"#utility.yul\":10696:10702   */\n      dup6\n        /* \"#utility.yul\":10652:10723   */\n      tag_148\n      jump\t// in\n    tag_280:\n        /* \"#utility.yul\":10733:10805   */\n      tag_281\n        /* \"#utility.yul\":10801:10803   */\n      0x20\n        /* \"#utility.yul\":10790:10799   */\n      dup4\n        /* \"#utility.yul\":10786:10804   */\n      add\n        /* \"#utility.yul\":10777:10783   */\n      dup5\n        /* \"#utility.yul\":10733:10805   */\n      tag_148\n      jump\t// in\n    tag_281:\n        /* \"#utility.yul\":10480:10812   */\n      swap4\n      swap3\n      pop\n      pop\n      pop\n      jump\t// out\n        /* \"#utility.yul\":10818:10998   */\n    tag_94:\n        /* \"#utility.yul\":10866:10943   */\n      0x4e487b7100000000000000000000000000000000000000000000000000000000\n        /* \"#utility.yul\":10863:10864   */\n      0x00\n        /* \"#utility.yul\":10856:10944   */\n      mstore\n        /* \"#utility.yul\":10963:10967   */\n      0x21\n        /* \"#utility.yul\":10960:10961   */\n      0x04\n        /* \"#utility.yul\":10953:10968   */\n      mstore\n        /* \"#utility.yul\":10987:10991   */\n      0x24\n        /* \"#utility.yul\":10984:10985   */\n      0x00\n        /* \"#utility.yul\":10977:10992   */\n      revert\n        /* \"#utility.yul\":11004:11226   */\n    tag_111:\n        /* \"#utility.yul\":11097:11101   */\n      0x00\n        /* \"#utility.yul\":11135:11137   */\n      0x20\n        /* \"#utility.yul\":11124:11133   */\n      dup3\n        /* \"#utility.yul\":11120:11138   */\n      add\n        /* \"#utility.yul\":11112:11138   */\n      swap1\n      pop\n        /* \"#utility.yul\":11148:11219   */\n      tag_284\n        /* \"#utility.yul\":11216:11217   */\n      0x00\n        /* \"#utility.yul\":11205:11214   */\n      dup4\n        /* \"#utility.yul\":11201:11218   */\n      add\n        /* \"#utility.yul\":11192:11198   */\n      dup5\n        /* \"#utility.yul\":11148:11219   */\n      tag_148\n      jump\t// in\n    tag_284:\n        /* \"#utility.yul\":11004:11226   */\n      swap3\n      swap2\n      pop\n      pop\n      jump\t// out\n        /* \"#utility.yul\":11232:11309   */\n    tag_163:\n        /* \"#utility.yul\":11269:11276   */\n      0x00\n        /* \"#utility.yul\":11298:11303   */\n      dup2\n        /* \"#utility.yul\":11287:11303   */\n      swap1\n      pop\n        /* \"#utility.yul\":11232:11309   */\n      swap2\n      swap1\n      pop\n      jump\t// out\n        /* \"#utility.yul\":11315:11433   */\n    tag_164:\n        /* \"#utility.yul\":11402:11426   */\n      tag_287\n        /* \"#utility.yul\":11420:11425   */\n      dup2\n        /* \"#utility.yul\":11402:11426   */\n      tag_163\n      jump\t// in\n    tag_287:\n        /* \"#utility.yul\":11397:11400   */\n      dup3\n        /* \"#utility.yul\":11390:11427   */\n      mstore\n        /* \"#utility.yul\":11315:11433   */\n      pop\n      pop\n      jump\t// out\n        /* \"#utility.yul\":11439:11661   */\n    tag_119:\n        /* \"#utility.yul\":11532:11536   */\n      0x00\n        /* \"#utility.yul\":11570:11572   */\n      0x20\n        /* \"#utility.yul\":11559:11568   */\n      dup3\n        /* \"#utility.yul\":11555:11573   */\n      add\n        /* \"#utility.yul\":11547:11573   */\n      swap1\n      pop\n        /* \"#utility.yul\":11583:11654   */\n      tag_289\n        /* \"#utility.yul\":11651:11652   */\n      0x00\n        /* \"#utility.yul\":11640:11649   */\n      dup4\n        /* \"#utility.yul\":11636:11653   */\n      add\n        /* \"#utility.yul\":11627:11633   */\n      dup5\n        /* \"#utility.yul\":11583:11654   */\n      tag_164\n      jump\t// in\n    tag_289:\n        /* \"#utility.yul\":11439:11661   */\n      swap3\n      swap2\n      pop\n      pop\n      jump\t// out\n        /* \"#utility.yul\":11667:11753   */\n    tag_165:\n        /* \"#utility.yul\":11702:11709   */\n      0x00\n        /* \"#utility.yul\":11742:11746   */\n      0xff\n        /* \"#utility.yul\":11735:11740   */\n      dup3\n        /* \"#utility.yul\":11731:11747   */\n      and\n        /* \"#utility.yul\":11720:11747   */\n      swap1\n      pop\n        /* \"#utility.yul\":11667:11753   */\n      swap2\n      swap1\n      pop\n      jump\t// out\n        /* \"#utility.yul\":11759:11871   */\n    tag_166:\n        /* \"#utility.yul\":11842:11864   */\n      tag_292\n        /* \"#utility.yul\":11858:11863   */\n      dup2\n        /* \"#utility.yul\":11842:11864   */\n      tag_165\n      jump\t// in\n    tag_292:\n        /* \"#utility.yul\":11837:11840   */\n      dup3\n        /* \"#utility.yul\":11830:11865   */\n      mstore\n        /* \"#utility.yul\":11759:11871   */\n      pop\n      pop\n      jump\t// out\n        /* \"#utility.yul\":11877:12422   */\n    tag_123:\n        /* \"#utility.yul\":12050:12054   */\n      0x00\n        /* \"#utility.yul\":12088:12091   */\n      0x80\n        /* \"#utility.yul\":12077:12086   */\n      dup3\n        /* \"#utility.yul\":12073:12092   */\n      add\n        /* \"#utility.yul\":12065:12092   */\n      swap1\n      pop\n        /* \"#utility.yul\":12102:12173   */\n      tag_294\n        /* \"#utility.yul\":12170:12171   */\n      0x00\n        /* \"#utility.yul\":12159:12168   */\n      dup4\n        /* \"#utility.yul\":12155:12172   */\n      add\n        /* \"#utility.yul\":12146:12152   */\n      dup8\n        /* \"#utility.yul\":12102:12173   */\n      tag_164\n      jump\t// in\n    tag_294:\n        /* \"#utility.yul\":12183:12251   */\n      tag_295\n        /* \"#utility.yul\":12247:12249   */\n      0x20\n        /* \"#utility.yul\":12236:12245   */\n      dup4\n        /* \"#utility.yul\":12232:12250   */\n      add\n        /* \"#utility.yul\":12223:12229   */\n      dup7\n        /* \"#utility.yul\":12183:12251   */\n      tag_166\n      jump\t// in\n    tag_295:\n        /* \"#utility.yul\":12261:12333   */\n      tag_296\n        /* \"#utility.yul\":12329:12331   */\n      0x40\n        /* \"#utility.yul\":12318:12327   */\n      dup4\n        /* \"#utility.yul\":12314:12332   */\n      add\n        /* \"#utility.yul\":12305:12311   */\n      dup6\n        /* \"#utility.yul\":12261:12333   */\n      tag_164\n      jump\t// in\n    tag_296:\n        /* \"#utility.yul\":12343:12415   */\n      tag_297\n        /* \"#utility.yul\":12411:12413   */\n      0x60\n        /* \"#utility.yul\":12400:12409   */\n      dup4\n        /* \"#utility.yul\":12396:12414   */\n      add\n        /* \"#utility.yul\":12387:12393   */\n      dup5\n        /* \"#utility.yul\":12343:12415   */\n      tag_164\n      jump\t// in\n    tag_297:\n        /* \"#utility.yul\":11877:12422   */\n      swap6\n      swap5\n      pop\n      pop\n      pop\n      pop\n      pop\n      jump\t// out\n\n    auxdata: 0xa2646970667358221220dd9e1446b9168e38170b002f7570fad652bdd290bc1a2f3d41447a82d8743ca964736f6c634300081e0033\n}\n",
				"bytecode": {
					"linkReferences": {},
					"object": "608060405234801561000f575f5ffd5b5060405161121138038061121183398181016040528101906100319190610218565b815f73ffffffffffffffffffffffffffffffffffffffff168173ffffffffffffffffffffffffffffffffffffffff16036100a2575f6040517f1e4fbdf70000000000000000000000000000000000000000000000000000000081526004016100999190610265565b60405180910390fd5b6100b1816100f960201b60201c565b508060015f6101000a81548173ffffffffffffffffffffffffffffffffffffffff021916908373ffffffffffffffffffffffffffffffffffffffff160217905550505061027e565b5f5f5f9054906101000a900473ffffffffffffffffffffffffffffffffffffffff169050815f5f6101000a81548173ffffffffffffffffffffffffffffffffffffffff021916908373ffffffffffffffffffffffffffffffffffffffff1602179055508173ffffffffffffffffffffffffffffffffffffffff168173ffffffffffffffffffffffffffffffffffffffff167f8be0079c531659141344cd1fd0a4f28419497f9722a3daafe3b4186f6b6457e060405160405180910390a35050565b5f5ffd5b5f73ffffffffffffffffffffffffffffffffffffffff82169050919050565b5f6101e7826101be565b9050919050565b6101f7816101dd565b8114610201575f5ffd5b50565b5f81519050610212816101ee565b92915050565b5f5f6040838503121561022e5761022d6101ba565b5b5f61023b85828601610204565b925050602061024c85828601610204565b9150509250929050565b61025f816101dd565b82525050565b5f6020820190506102785f830184610256565b92915050565b610f868061028b5f395ff3fe608060405234801561000f575f5ffd5b5060043610610060575f3560e01c80635e35359e1461006457806361519f4214610080578063715018a61461009c5780638da5cb5b146100a65780638fa2a9f0146100c4578063f2fde38b146100e0575b5f5ffd5b61007e60048036038101906100799190610981565b6100fc565b005b61009a60048036038101906100959190610b0d565b610185565b005b6100a46103c3565b005b6100ae6103d6565b6040516100bb9190610b9c565b60405180910390f35b6100de60048036038101906100d99190610bb5565b6103fd565b005b6100fa60048036038101906100f59190610bb5565b610448565b005b6101046104cc565b8273ffffffffffffffffffffffffffffffffffffffff1663a9059cbb83836040518363ffffffff1660e01b815260040161013f929190610bef565b6020604051808303815f875af115801561015b573d5f5f3e3d5ffd5b505050506040513d601f19601f8201168201806040525081019061017f9190610c4b565b50505050565b60025f8381526020019081526020015f205f9054906101000a900460ff16156101e3576040517f08c379a00000000000000000000000000000000000000000000000000000000081526004016101da90610cf6565b60405180910390fd5b5f338585856040516020016101fb9493929190610d79565b6040516020818303038152906040528051906020012090505f61021e8284610553565b905060015f9054906101000a900473ffffffffffffffffffffffffffffffffffffffff1673ffffffffffffffffffffffffffffffffffffffff168173ffffffffffffffffffffffffffffffffffffffff16146102af576040517f08c379a00000000000000000000000000000000000000000000000000000000081526004016102a690610e36565b60405180910390fd5b600160025f8681526020019081526020015f205f6101000a81548160ff0219169083151502179055508573ffffffffffffffffffffffffffffffffffffffff1663a9059cbb33876040518363ffffffff1660e01b8152600401610313929190610bef565b6020604051808303815f875af115801561032f573d5f5f3e3d5ffd5b505050506040513d601f19601f820116820180604052508101906103539190610c4b565b508573ffffffffffffffffffffffffffffffffffffffff163373ffffffffffffffffffffffffffffffffffffffff167f7a84a08b02c91f3c62d572853f966fc799bbd121e8ad7833a4494ab8dcfcb40487876040516103b3929190610e54565b60405180910390a3505050505050565b6103cb6104cc565b6103d45f61057d565b565b5f5f5f9054906101000a900473ffffffffffffffffffffffffffffffffffffffff16905090565b6104056104cc565b8060015f6101000a81548173ffffffffffffffffffffffffffffffffffffffff021916908373ffffffffffffffffffffffffffffffffffffffff16021790555050565b6104506104cc565b5f73ffffffffffffffffffffffffffffffffffffffff168173ffffffffffffffffffffffffffffffffffffffff16036104c0575f6040517f1e4fbdf70000000000000000000000000000000000000000000000000000000081526004016104b79190610b9c565b60405180910390fd5b6104c98161057d565b50565b6104d461063e565b73ffffffffffffffffffffffffffffffffffffffff166104f26103d6565b73ffffffffffffffffffffffffffffffffffffffff16146105515761051561063e565b6040517f118cdaa70000000000000000000000000000000000000000000000000000000081526004016105489190610b9c565b60405180910390fd5b565b5f5f5f5f6105618686610645565b925092509250610571828261069a565b82935050505092915050565b5f5f5f9054906101000a900473ffffffffffffffffffffffffffffffffffffffff169050815f5f6101000a81548173ffffffffffffffffffffffffffffffffffffffff021916908373ffffffffffffffffffffffffffffffffffffffff1602179055508173ffffffffffffffffffffffffffffffffffffffff168173ffffffffffffffffffffffffffffffffffffffff167f8be0079c531659141344cd1fd0a4f28419497f9722a3daafe3b4186f6b6457e060405160405180910390a35050565b5f33905090565b5f5f5f6041845103610685575f5f5f602087015192506040870151915060608701515f1a9050610677888285856107fc565b955095509550505050610693565b5f600285515f1b9250925092505b9250925092565b5f60038111156106ad576106ac610e7b565b5b8260038111156106c0576106bf610e7b565b5b03156107f857600160038111156106da576106d9610e7b565b5b8260038111156106ed576106ec610e7b565b5b03610724576040517ff645eedf00000000000000000000000000000000000000000000000000000000815260040160405180910390fd5b6002600381111561073857610737610e7b565b5b82600381111561074b5761074a610e7b565b5b0361078f57805f1c6040517ffce698f70000000000000000000000000000000000000000000000000000000081526004016107869190610ea8565b60405180910390fd5b6003808111156107a2576107a1610e7b565b5b8260038111156107b5576107b4610e7b565b5b036107f757806040517fd78bce0c0000000000000000000000000000000000000000000000000000000081526004016107ee9190610ed9565b60405180910390fd5b5b5050565b5f5f5f7f7fffffffffffffffffffffffffffffff5d576e7357a4501ddfe92f46681b20a0845f1c1115610838575f6003859250925092506108d9565b5f6001888888886040515f815260200160405260405161085b9493929190610f0d565b6020604051602081039080840390855afa15801561087b573d5f5f3e3d5ffd5b5050506020604051035190505f73ffffffffffffffffffffffffffffffffffffffff168173ffffffffffffffffffffffffffffffffffffffff16036108cc575f60015f5f1b935093509350506108d9565b805f5f5f1b935093509350505b9450945094915050565b5f604051905090565b5f5ffd5b5f5ffd5b5f73ffffffffffffffffffffffffffffffffffffffff82169050919050565b5f61091d826108f4565b9050919050565b61092d81610913565b8114610937575f5ffd5b50565b5f8135905061094881610924565b92915050565b5f819050919050565b6109608161094e565b811461096a575f5ffd5b50565b5f8135905061097b81610957565b92915050565b5f5f5f60608486031215610998576109976108ec565b5b5f6109a58682870161093a565b93505060206109b68682870161093a565b92505060406109c78682870161096d565b9150509250925092565b5f5ffd5b5f5ffd5b5f601f19601f8301169050919050565b7f4e487b71000000000000000000000000000000000000000000000000000000005f52604160045260245ffd5b610a1f826109d9565b810181811067ffffffffffffffff82111715610a3e57610a3d6109e9565b5b80604052505050565b5f610a506108e3565b9050610a5c8282610a16565b919050565b5f67ffffffffffffffff821115610a7b57610a7a6109e9565b5b610a84826109d9565b9050602081019050919050565b828183375f83830152505050565b5f610ab1610aac84610a61565b610a47565b905082815260208101848484011115610acd57610acc6109d5565b5b610ad8848285610a91565b509392505050565b5f82601f830112610af457610af36109d1565b5b8135610b04848260208601610a9f565b91505092915050565b5f5f5f5f60808587031215610b2557610b246108ec565b5b5f610b328782880161093a565b9450506020610b438782880161096d565b9350506040610b548782880161096d565b925050606085013567ffffffffffffffff811115610b7557610b746108f0565b5b610b8187828801610ae0565b91505092959194509250565b610b9681610913565b82525050565b5f602082019050610baf5f830184610b8d565b92915050565b5f60208284031215610bca57610bc96108ec565b5b5f610bd78482850161093a565b91505092915050565b610be98161094e565b82525050565b5f604082019050610c025f830185610b8d565b610c0f6020830184610be0565b9392505050565b5f8115159050919050565b610c2a81610c16565b8114610c34575f5ffd5b50565b5f81519050610c4581610c21565b92915050565b5f60208284031215610c6057610c5f6108ec565b5b5f610c6d84828501610c37565b91505092915050565b5f82825260208201905092915050565b7f436c61696d436f6e74726163743a204e6f6e63652068617320616c72656164795f8201527f206265656e20757365642e000000000000000000000000000000000000000000602082015250565b5f610ce0602b83610c76565b9150610ceb82610c86565b604082019050919050565b5f6020820190508181035f830152610d0d81610cd4565b9050919050565b5f8160601b9050919050565b5f610d2a82610d14565b9050919050565b5f610d3b82610d20565b9050919050565b610d53610d4e82610913565b610d31565b82525050565b5f819050919050565b610d73610d6e8261094e565b610d59565b82525050565b5f610d848287610d42565b601482019150610d948286610d42565b601482019150610da48285610d62565b602082019150610db48284610d62565b60208201915081905095945050505050565b7f436c61696d436f6e74726163743a20496e76616c6964207369676e61747572655f8201527f2e00000000000000000000000000000000000000000000000000000000000000602082015250565b5f610e20602183610c76565b9150610e2b82610dc6565b604082019050919050565b5f6020820190508181035f830152610e4d81610e14565b9050919050565b5f604082019050610e675f830185610be0565b610e746020830184610be0565b9392505050565b7f4e487b71000000000000000000000000000000000000000000000000000000005f52602160045260245ffd5b5f602082019050610ebb5f830184610be0565b92915050565b5f819050919050565b610ed381610ec1565b82525050565b5f602082019050610eec5f830184610eca565b92915050565b5f60ff82169050919050565b610f0781610ef2565b82525050565b5f608082019050610f205f830187610eca565b610f2d6020830186610efe565b610f3a6040830185610eca565b610f476060830184610eca565b9594505050505056fea2646970667358221220dd9e1446b9168e38170b002f7570fad652bdd290bc1a2f3d41447a82d8743ca964736f6c634300081e0033",
					"opcodes": "PUSH1 0x80 PUSH1 0x40 MSTORE CALLVALUE DUP1 ISZERO PUSH2 0xF JUMPI PUSH0 PUSH0 REVERT JUMPDEST POP PUSH1 0x40 MLOAD PUSH2 0x1211 CODESIZE SUB DUP1 PUSH2 0x1211 DUP4 CODECOPY DUP2 DUP2 ADD PUSH1 0x40 MSTORE DUP2 ADD SWAP1 PUSH2 0x31 SWAP2 SWAP1 PUSH2 0x218 JUMP JUMPDEST DUP2 PUSH0 PUSH20 0xFFFFFFFFFFFFFFFFFFFFFFFFFFFFFFFFFFFFFFFF AND DUP2 PUSH20 0xFFFFFFFFFFFFFFFFFFFFFFFFFFFFFFFFFFFFFFFF AND SUB PUSH2 0xA2 JUMPI PUSH0 PUSH1 0x40 MLOAD PUSH32 0x1E4FBDF700000000000000000000000000000000000000000000000000000000 DUP2 MSTORE PUSH1 0x4 ADD PUSH2 0x99 SWAP2 SWAP1 PUSH2 0x265 JUMP JUMPDEST PUSH1 0x40 MLOAD DUP1 SWAP2 SUB SWAP1 REVERT JUMPDEST PUSH2 0xB1 DUP2 PUSH2 0xF9 PUSH1 0x20 SHL PUSH1 0x20 SHR JUMP JUMPDEST POP DUP1 PUSH1 0x1 PUSH0 PUSH2 0x100 EXP DUP2 SLOAD DUP2 PUSH20 0xFFFFFFFFFFFFFFFFFFFFFFFFFFFFFFFFFFFFFFFF MUL NOT AND SWAP1 DUP4 PUSH20 0xFFFFFFFFFFFFFFFFFFFFFFFFFFFFFFFFFFFFFFFF AND MUL OR SWAP1 SSTORE POP POP POP PUSH2 0x27E JUMP JUMPDEST PUSH0 PUSH0 PUSH0 SWAP1 SLOAD SWAP1 PUSH2 0x100 EXP SWAP1 DIV PUSH20 0xFFFFFFFFFFFFFFFFFFFFFFFFFFFFFFFFFFFFFFFF AND SWAP1 POP DUP2 PUSH0 PUSH0 PUSH2 0x100 EXP DUP2 SLOAD DUP2 PUSH20 0xFFFFFFFFFFFFFFFFFFFFFFFFFFFFFFFFFFFFFFFF MUL NOT AND SWAP1 DUP4 PUSH20 0xFFFFFFFFFFFFFFFFFFFFFFFFFFFFFFFFFFFFFFFF AND MUL OR SWAP1 SSTORE POP DUP2 PUSH20 0xFFFFFFFFFFFFFFFFFFFFFFFFFFFFFFFFFFFFFFFF AND DUP2 PUSH20 0xFFFFFFFFFFFFFFFFFFFFFFFFFFFFFFFFFFFFFFFF AND PUSH32 0x8BE0079C531659141344CD1FD0A4F28419497F9722A3DAAFE3B4186F6B6457E0 PUSH1 0x40 MLOAD PUSH1 0x40 MLOAD DUP1 SWAP2 SUB SWAP1 LOG3 POP POP JUMP JUMPDEST PUSH0 PUSH0 REVERT JUMPDEST PUSH0 PUSH20 0xFFFFFFFFFFFFFFFFFFFFFFFFFFFFFFFFFFFFFFFF DUP3 AND SWAP1 POP SWAP2 SWAP1 POP JUMP JUMPDEST PUSH0 PUSH2 0x1E7 DUP3 PUSH2 0x1BE JUMP JUMPDEST SWAP1 POP SWAP2 SWAP1 POP JUMP JUMPDEST PUSH2 0x1F7 DUP2 PUSH2 0x1DD JUMP JUMPDEST DUP2 EQ PUSH2 0x201 JUMPI PUSH0 PUSH0 REVERT JUMPDEST POP JUMP JUMPDEST PUSH0 DUP2 MLOAD SWAP1 POP PUSH2 0x212 DUP2 PUSH2 0x1EE JUMP JUMPDEST SWAP3 SWAP2 POP POP JUMP JUMPDEST PUSH0 PUSH0 PUSH1 0x40 DUP4 DUP6 SUB SLT ISZERO PUSH2 0x22E JUMPI PUSH2 0x22D PUSH2 0x1BA JUMP JUMPDEST JUMPDEST PUSH0 PUSH2 0x23B DUP6 DUP3 DUP7 ADD PUSH2 0x204 JUMP JUMPDEST SWAP3 POP POP PUSH1 0x20 PUSH2 0x24C DUP6 DUP3 DUP7 ADD PUSH2 0x204 JUMP JUMPDEST SWAP2 POP POP SWAP3 POP SWAP3 SWAP1 POP JUMP JUMPDEST PUSH2 0x25F DUP2 PUSH2 0x1DD JUMP JUMPDEST DUP3 MSTORE POP POP JUMP JUMPDEST PUSH0 PUSH1 0x20 DUP3 ADD SWAP1 POP PUSH2 0x278 PUSH0 DUP4 ADD DUP5 PUSH2 0x256 JUMP JUMPDEST SWAP3 SWAP2 POP POP JUMP JUMPDEST PUSH2 0xF86 DUP1 PUSH2 0x28B PUSH0 CODECOPY PUSH0 RETURN INVALID PUSH1 0x80 PUSH1 0x40 MSTORE CALLVALUE DUP1 ISZERO PUSH2 0xF JUMPI PUSH0 PUSH0 REVERT JUMPDEST POP PUSH1 0x4 CALLDATASIZE LT PUSH2 0x60 JUMPI PUSH0 CALLDATALOAD PUSH1 0xE0 SHR DUP1 PUSH4 0x5E35359E EQ PUSH2 0x64 JUMPI DUP1 PUSH4 0x61519F42 EQ PUSH2 0x80 JUMPI DUP1 PUSH4 0x715018A6 EQ PUSH2 0x9C JUMPI DUP1 PUSH4 0x8DA5CB5B EQ PUSH2 0xA6 JUMPI DUP1 PUSH4 0x8FA2A9F0 EQ PUSH2 0xC4 JUMPI DUP1 PUSH4 0xF2FDE38B EQ PUSH2 0xE0 JUMPI JUMPDEST PUSH0 PUSH0 REVERT JUMPDEST PUSH2 0x7E PUSH1 0x4 DUP1 CALLDATASIZE SUB DUP2 ADD SWAP1 PUSH2 0x79 SWAP2 SWAP1 PUSH2 0x981 JUMP JUMPDEST PUSH2 0xFC JUMP JUMPDEST STOP JUMPDEST PUSH2 0x9A PUSH1 0x4 DUP1 CALLDATASIZE SUB DUP2 ADD SWAP1 PUSH2 0x95 SWAP2 SWAP1 PUSH2 0xB0D JUMP JUMPDEST PUSH2 0x185 JUMP JUMPDEST STOP JUMPDEST PUSH2 0xA4 PUSH2 0x3C3 JUMP JUMPDEST STOP JUMPDEST PUSH2 0xAE PUSH2 0x3D6 JUMP JUMPDEST PUSH1 0x40 MLOAD PUSH2 0xBB SWAP2 SWAP1 PUSH2 0xB9C JUMP JUMPDEST PUSH1 0x40 MLOAD DUP1 SWAP2 SUB SWAP1 RETURN JUMPDEST PUSH2 0xDE PUSH1 0x4 DUP1 CALLDATASIZE SUB DUP2 ADD SWAP1 PUSH2 0xD9 SWAP2 SWAP1 PUSH2 0xBB5 JUMP JUMPDEST PUSH2 0x3FD JUMP JUMPDEST STOP JUMPDEST PUSH2 0xFA PUSH1 0x4 DUP1 CALLDATASIZE SUB DUP2 ADD SWAP1 PUSH2 0xF5 SWAP2 SWAP1 PUSH2 0xBB5 JUMP JUMPDEST PUSH2 0x448 JUMP JUMPDEST STOP JUMPDEST PUSH2 0x104 PUSH2 0x4CC JUMP JUMPDEST DUP3 PUSH20 0xFFFFFFFFFFFFFFFFFFFFFFFFFFFFFFFFFFFFFFFF AND PUSH4 0xA9059CBB DUP4 DUP4 PUSH1 0x40 MLOAD DUP4 PUSH4 0xFFFFFFFF AND PUSH1 0xE0 SHL DUP2 MSTORE PUSH1 0x4 ADD PUSH2 0x13F SWAP3 SWAP2 SWAP1 PUSH2 0xBEF JUMP JUMPDEST PUSH1 0x20 PUSH1 0x40 MLOAD DUP1 DUP4 SUB DUP2 PUSH0 DUP8 GAS CALL ISZERO DUP1 ISZERO PUSH2 0x15B JUMPI RETURNDATASIZE PUSH0 PUSH0 RETURNDATACOPY RETURNDATASIZE PUSH0 REVERT JUMPDEST POP POP POP POP PUSH1 0x40 MLOAD RETURNDATASIZE PUSH1 0x1F NOT PUSH1 0x1F DUP3 ADD AND DUP3 ADD DUP1 PUSH1 0x40 MSTORE POP DUP2 ADD SWAP1 PUSH2 0x17F SWAP2 SWAP1 PUSH2 0xC4B JUMP JUMPDEST POP POP POP POP JUMP JUMPDEST PUSH1 0x2 PUSH0 DUP4 DUP2 MSTORE PUSH1 0x20 ADD SWAP1 DUP2 MSTORE PUSH1 0x20 ADD PUSH0 KECCAK256 PUSH0 SWAP1 SLOAD SWAP1 PUSH2 0x100 EXP SWAP1 DIV PUSH1 0xFF AND ISZERO PUSH2 0x1E3 JUMPI PUSH1 0x40 MLOAD PUSH32 0x8C379A000000000000000000000000000000000000000000000000000000000 DUP2 MSTORE PUSH1 0x4 ADD PUSH2 0x1DA SWAP1 PUSH2 0xCF6 JUMP JUMPDEST PUSH1 0x40 MLOAD DUP1 SWAP2 SUB SWAP1 REVERT JUMPDEST PUSH0 CALLER DUP6 DUP6 DUP6 PUSH1 0x40 MLOAD PUSH1 0x20 ADD PUSH2 0x1FB SWAP5 SWAP4 SWAP3 SWAP2 SWAP1 PUSH2 0xD79 JUMP JUMPDEST PUSH1 0x40 MLOAD PUSH1 0x20 DUP2 DUP4 SUB SUB DUP2 MSTORE SWAP1 PUSH1 0x40 MSTORE DUP1 MLOAD SWAP1 PUSH1 0x20 ADD KECCAK256 SWAP1 POP PUSH0 PUSH2 0x21E DUP3 DUP5 PUSH2 0x553 JUMP JUMPDEST SWAP1 POP PUSH1 0x1 PUSH0 SWAP1 SLOAD SWAP1 PUSH2 0x100 EXP SWAP1 DIV PUSH20 0xFFFFFFFFFFFFFFFFFFFFFFFFFFFFFFFFFFFFFFFF AND PUSH20 0xFFFFFFFFFFFFFFFFFFFFFFFFFFFFFFFFFFFFFFFF AND DUP2 PUSH20 0xFFFFFFFFFFFFFFFFFFFFFFFFFFFFFFFFFFFFFFFF AND EQ PUSH2 0x2AF JUMPI PUSH1 0x40 MLOAD PUSH32 0x8C379A000000000000000000000000000000000000000000000000000000000 DUP2 MSTORE PUSH1 0x4 ADD PUSH2 0x2A6 SWAP1 PUSH2 0xE36 JUMP JUMPDEST PUSH1 0x40 MLOAD DUP1 SWAP2 SUB SWAP1 REVERT JUMPDEST PUSH1 0x1 PUSH1 0x2 PUSH0 DUP7 DUP2 MSTORE PUSH1 0x20 ADD SWAP1 DUP2 MSTORE PUSH1 0x20 ADD PUSH0 KECCAK256 PUSH0 PUSH2 0x100 EXP DUP2 SLOAD DUP2 PUSH1 0xFF MUL NOT AND SWAP1 DUP4 ISZERO ISZERO MUL OR SWAP1 SSTORE POP DUP6 PUSH20 0xFFFFFFFFFFFFFFFFFFFFFFFFFFFFFFFFFFFFFFFF AND PUSH4 0xA9059CBB CALLER DUP8 PUSH1 0x40 MLOAD DUP4 PUSH4 0xFFFFFFFF AND PUSH1 0xE0 SHL DUP2 MSTORE PUSH1 0x4 ADD PUSH2 0x313 SWAP3 SWAP2 SWAP1 PUSH2 0xBEF JUMP JUMPDEST PUSH1 0x20 PUSH1 0x40 MLOAD DUP1 DUP4 SUB DUP2 PUSH0 DUP8 GAS CALL ISZERO DUP1 ISZERO PUSH2 0x32F JUMPI RETURNDATASIZE PUSH0 PUSH0 RETURNDATACOPY RETURNDATASIZE PUSH0 REVERT JUMPDEST POP POP POP POP PUSH1 0x40 MLOAD RETURNDATASIZE PUSH1 0x1F NOT PUSH1 0x1F DUP3 ADD AND DUP3 ADD DUP1 PUSH1 0x40 MSTORE POP DUP2 ADD SWAP1 PUSH2 0x353 SWAP2 SWAP1 PUSH2 0xC4B JUMP JUMPDEST POP DUP6 PUSH20 0xFFFFFFFFFFFFFFFFFFFFFFFFFFFFFFFFFFFFFFFF AND CALLER PUSH20 0xFFFFFFFFFFFFFFFFFFFFFFFFFFFFFFFFFFFFFFFF AND PUSH32 0x7A84A08B02C91F3C62D572853F966FC799BBD121E8AD7833A4494AB8DCFCB404 DUP8 DUP8 PUSH1 0x40 MLOAD PUSH2 0x3B3 SWAP3 SWAP2 SWAP1 PUSH2 0xE54 JUMP JUMPDEST PUSH1 0x40 MLOAD DUP1 SWAP2 SUB SWAP1 LOG3 POP POP POP POP POP POP JUMP JUMPDEST PUSH2 0x3CB PUSH2 0x4CC JUMP JUMPDEST PUSH2 0x3D4 PUSH0 PUSH2 0x57D JUMP JUMPDEST JUMP JUMPDEST PUSH0 PUSH0 PUSH0 SWAP1 SLOAD SWAP1 PUSH2 0x100 EXP SWAP1 DIV PUSH20 0xFFFFFFFFFFFFFFFFFFFFFFFFFFFFFFFFFFFFFFFF AND SWAP1 POP SWAP1 JUMP JUMPDEST PUSH2 0x405 PUSH2 0x4CC JUMP JUMPDEST DUP1 PUSH1 0x1 PUSH0 PUSH2 0x100 EXP DUP2 SLOAD DUP2 PUSH20 0xFFFFFFFFFFFFFFFFFFFFFFFFFFFFFFFFFFFFFFFF MUL NOT AND SWAP1 DUP4 PUSH20 0xFFFFFFFFFFFFFFFFFFFFFFFFFFFFFFFFFFFFFFFF AND MUL OR SWAP1 SSTORE POP POP JUMP JUMPDEST PUSH2 0x450 PUSH2 0x4CC JUMP JUMPDEST PUSH0 PUSH20 0xFFFFFFFFFFFFFFFFFFFFFFFFFFFFFFFFFFFFFFFF AND DUP2 PUSH20 0xFFFFFFFFFFFFFFFFFFFFFFFFFFFFFFFFFFFFFFFF AND SUB PUSH2 0x4C0 JUMPI PUSH0 PUSH1 0x40 MLOAD PUSH32 0x1E4FBDF700000000000000000000000000000000000000000000000000000000 DUP2 MSTORE PUSH1 0x4 ADD PUSH2 0x4B7 SWAP2 SWAP1 PUSH2 0xB9C JUMP JUMPDEST PUSH1 0x40 MLOAD DUP1 SWAP2 SUB SWAP1 REVERT JUMPDEST PUSH2 0x4C9 DUP2 PUSH2 0x57D JUMP JUMPDEST POP JUMP JUMPDEST PUSH2 0x4D4 PUSH2 0x63E JUMP JUMPDEST PUSH20 0xFFFFFFFFFFFFFFFFFFFFFFFFFFFFFFFFFFFFFFFF AND PUSH2 0x4F2 PUSH2 0x3D6 JUMP JUMPDEST PUSH20 0xFFFFFFFFFFFFFFFFFFFFFFFFFFFFFFFFFFFFFFFF AND EQ PUSH2 0x551 JUMPI PUSH2 0x515 PUSH2 0x63E JUMP JUMPDEST PUSH1 0x40 MLOAD PUSH32 0x118CDAA700000000000000000000000000000000000000000000000000000000 DUP2 MSTORE PUSH1 0x4 ADD PUSH2 0x548 SWAP2 SWAP1 PUSH2 0xB9C JUMP JUMPDEST PUSH1 0x40 MLOAD DUP1 SWAP2 SUB SWAP1 REVERT JUMPDEST JUMP JUMPDEST PUSH0 PUSH0 PUSH0 PUSH0 PUSH2 0x561 DUP7 DUP7 PUSH2 0x645 JUMP JUMPDEST SWAP3 POP SWAP3 POP SWAP3 POP PUSH2 0x571 DUP3 DUP3 PUSH2 0x69A JUMP JUMPDEST DUP3 SWAP4 POP POP POP POP SWAP3 SWAP2 POP POP JUMP JUMPDEST PUSH0 PUSH0 PUSH0 SWAP1 SLOAD SWAP1 PUSH2 0x100 EXP SWAP1 DIV PUSH20 0xFFFFFFFFFFFFFFFFFFFFFFFFFFFFFFFFFFFFFFFF AND SWAP1 POP DUP2 PUSH0 PUSH0 PUSH2 0x100 EXP DUP2 SLOAD DUP2 PUSH20 0xFFFFFFFFFFFFFFFFFFFFFFFFFFFFFFFFFFFFFFFF MUL NOT AND SWAP1 DUP4 PUSH20 0xFFFFFFFFFFFFFFFFFFFFFFFFFFFFFFFFFFFFFFFF AND MUL OR SWAP1 SSTORE POP DUP2 PUSH20 0xFFFFFFFFFFFFFFFFFFFFFFFFFFFFFFFFFFFFFFFF AND DUP2 PUSH20 0xFFFFFFFFFFFFFFFFFFFFFFFFFFFFFFFFFFFFFFFF AND PUSH32 0x8BE0079C531659141344CD1FD0A4F28419497F9722A3DAAFE3B4186F6B6457E0 PUSH1 0x40 MLOAD PUSH1 0x40 MLOAD DUP1 SWAP2 SUB SWAP1 LOG3 POP POP JUMP JUMPDEST PUSH0 CALLER SWAP1 POP SWAP1 JUMP JUMPDEST PUSH0 PUSH0 PUSH0 PUSH1 0x41 DUP5 MLOAD SUB PUSH2 0x685 JUMPI PUSH0 PUSH0 PUSH0 PUSH1 0x20 DUP8 ADD MLOAD SWAP3 POP PUSH1 0x40 DUP8 ADD MLOAD SWAP2 POP PUSH1 0x60 DUP8 ADD MLOAD PUSH0 BYTE SWAP1 POP PUSH2 0x677 DUP9 DUP3 DUP6 DUP6 PUSH2 0x7FC JUMP JUMPDEST SWAP6 POP SWAP6 POP SWAP6 POP POP POP POP PUSH2 0x693 JUMP JUMPDEST PUSH0 PUSH1 0x2 DUP6 MLOAD PUSH0 SHL SWAP3 POP SWAP3 POP SWAP3 POP JUMPDEST SWAP3 POP SWAP3 POP SWAP3 JUMP JUMPDEST PUSH0 PUSH1 0x3 DUP2 GT ISZERO PUSH2 0x6AD JUMPI PUSH2 0x6AC PUSH2 0xE7B JUMP JUMPDEST JUMPDEST DUP3 PUSH1 0x3 DUP2 GT ISZERO PUSH2 0x6C0 JUMPI PUSH2 0x6BF PUSH2 0xE7B JUMP JUMPDEST JUMPDEST SUB ISZERO PUSH2 0x7F8 JUMPI PUSH1 0x1 PUSH1 0x3 DUP2 GT ISZERO PUSH2 0x6DA JUMPI PUSH2 0x6D9 PUSH2 0xE7B JUMP JUMPDEST JUMPDEST DUP3 PUSH1 0x3 DUP2 GT ISZERO PUSH2 0x6ED JUMPI PUSH2 0x6EC PUSH2 0xE7B JUMP JUMPDEST JUMPDEST SUB PUSH2 0x724 JUMPI PUSH1 0x40 MLOAD PUSH32 0xF645EEDF00000000000000000000000000000000000000000000000000000000 DUP2 MSTORE PUSH1 0x4 ADD PUSH1 0x40 MLOAD DUP1 SWAP2 SUB SWAP1 REVERT JUMPDEST PUSH1 0x2 PUSH1 0x3 DUP2 GT ISZERO PUSH2 0x738 JUMPI PUSH2 0x737 PUSH2 0xE7B JUMP JUMPDEST JUMPDEST DUP3 PUSH1 0x3 DUP2 GT ISZERO PUSH2 0x74B JUMPI PUSH2 0x74A PUSH2 0xE7B JUMP JUMPDEST JUMPDEST SUB PUSH2 0x78F JUMPI DUP1 PUSH0 SHR PUSH1 0x40 MLOAD PUSH32 0xFCE698F700000000000000000000000000000000000000000000000000000000 DUP2 MSTORE PUSH1 0x4 ADD PUSH2 0x786 SWAP2 SWAP1 PUSH2 0xEA8 JUMP JUMPDEST PUSH1 0x40 MLOAD DUP1 SWAP2 SUB SWAP1 REVERT JUMPDEST PUSH1 0x3 DUP1 DUP2 GT ISZERO PUSH2 0x7A2 JUMPI PUSH2 0x7A1 PUSH2 0xE7B JUMP JUMPDEST JUMPDEST DUP3 PUSH1 0x3 DUP2 GT ISZERO PUSH2 0x7B5 JUMPI PUSH2 0x7B4 PUSH2 0xE7B JUMP JUMPDEST JUMPDEST SUB PUSH2 0x7F7 JUMPI DUP1 PUSH1 0x40 MLOAD PUSH32 0xD78BCE0C00000000000000000000000000000000000000000000000000000000 DUP2 MSTORE PUSH1 0x4 ADD PUSH2 0x7EE SWAP2 SWAP1 PUSH2 0xED9 JUMP JUMPDEST PUSH1 0x40 MLOAD DUP1 SWAP2 SUB SWAP1 REVERT JUMPDEST JUMPDEST POP POP JUMP JUMPDEST PUSH0 PUSH0 PUSH0 PUSH32 0x7FFFFFFFFFFFFFFFFFFFFFFFFFFFFFFF5D576E7357A4501DDFE92F46681B20A0 DUP5 PUSH0 SHR GT ISZERO PUSH2 0x838 JUMPI PUSH0 PUSH1 0x3 DUP6 SWAP3 POP SWAP3 POP SWAP3 POP PUSH2 0x8D9 JUMP JUMPDEST PUSH0 PUSH1 0x1 DUP9 DUP9 DUP9 DUP9 PUSH1 0x40 MLOAD PUSH0 DUP2 MSTORE PUSH1 0x20 ADD PUSH1 0x40 MSTORE PUSH1 0x40 MLOAD PUSH2 0x85B SWAP5 SWAP4 SWAP3 SWAP2 SWAP1 PUSH2 0xF0D JUMP JUMPDEST PUSH1 0x20 PUSH1 0x40 MLOAD PUSH1 0x20 DUP2 SUB SWAP1 DUP1 DUP5 SUB SWAP1 DUP6 GAS STATICCALL ISZERO DUP1 ISZERO PUSH2 0x87B JUMPI RETURNDATASIZE PUSH0 PUSH0 RETURNDATACOPY RETURNDATASIZE PUSH0 REVERT JUMPDEST POP POP POP PUSH1 0x20 PUSH1 0x40 MLOAD SUB MLOAD SWAP1 POP PUSH0 PUSH20 0xFFFFFFFFFFFFFFFFFFFFFFFFFFFFFFFFFFFFFFFF AND DUP2 PUSH20 0xFFFFFFFFFFFFFFFFFFFFFFFFFFFFFFFFFFFFFFFF AND SUB PUSH2 0x8CC JUMPI PUSH0 PUSH1 0x1 PUSH0 PUSH0 SHL SWAP4 POP SWAP4 POP SWAP4 POP POP PUSH2 0x8D9 JUMP JUMPDEST DUP1 PUSH0 PUSH0 PUSH0 SHL SWAP4 POP SWAP4 POP SWAP4 POP POP JUMPDEST SWAP5 POP SWAP5 POP SWAP5 SWAP2 POP POP JUMP JUMPDEST PUSH0 PUSH1 0x40 MLOAD SWAP1 POP SWAP1 JUMP JUMPDEST PUSH0 PUSH0 REVERT JUMPDEST PUSH0 PUSH0 REVERT JUMPDEST PUSH0 PUSH20 0xFFFFFFFFFFFFFFFFFFFFFFFFFFFFFFFFFFFFFFFF DUP3 AND SWAP1 POP SWAP2 SWAP1 POP JUMP JUMPDEST PUSH0 PUSH2 0x91D DUP3 PUSH2 0x8F4 JUMP JUMPDEST SWAP1 POP SWAP2 SWAP1 POP JUMP JUMPDEST PUSH2 0x92D DUP2 PUSH2 0x913 JUMP JUMPDEST DUP2 EQ PUSH2 0x937 JUMPI PUSH0 PUSH0 REVERT JUMPDEST POP JUMP JUMPDEST PUSH0 DUP2 CALLDATALOAD SWAP1 POP PUSH2 0x948 DUP2 PUSH2 0x924 JUMP JUMPDEST SWAP3 SWAP2 POP POP JUMP JUMPDEST PUSH0 DUP2 SWAP1 POP SWAP2 SWAP1 POP JUMP JUMPDEST PUSH2 0x960 DUP2 PUSH2 0x94E JUMP JUMPDEST DUP2 EQ PUSH2 0x96A JUMPI PUSH0 PUSH0 REVERT JUMPDEST POP JUMP JUMPDEST PUSH0 DUP2 CALLDATALOAD SWAP1 POP PUSH2 0x97B DUP2 PUSH2 0x957 JUMP JUMPDEST SWAP3 SWAP2 POP POP JUMP JUMPDEST PUSH0 PUSH0 PUSH0 PUSH1 0x60 DUP5 DUP7 SUB SLT ISZERO PUSH2 0x998 JUMPI PUSH2 0x997 PUSH2 0x8EC JUMP JUMPDEST JUMPDEST PUSH0 PUSH2 0x9A5 DUP7 DUP3 DUP8 ADD PUSH2 0x93A JUMP JUMPDEST SWAP4 POP POP PUSH1 0x20 PUSH2 0x9B6 DUP7 DUP3 DUP8 ADD PUSH2 0x93A JUMP JUMPDEST SWAP3 POP POP PUSH1 0x40 PUSH2 0x9C7 DUP7 DUP3 DUP8 ADD PUSH2 0x96D JUMP JUMPDEST SWAP2 POP POP SWAP3 POP SWAP3 POP SWAP3 JUMP JUMPDEST PUSH0 PUSH0 REVERT JUMPDEST PUSH0 PUSH0 REVERT JUMPDEST PUSH0 PUSH1 0x1F NOT PUSH1 0x1F DUP4 ADD AND SWAP1 POP SWAP2 SWAP1 POP JUMP JUMPDEST PUSH32 0x4E487B7100000000000000000000000000000000000000000000000000000000 PUSH0 MSTORE PUSH1 0x41 PUSH1 0x4 MSTORE PUSH1 0x24 PUSH0 REVERT JUMPDEST PUSH2 0xA1F DUP3 PUSH2 0x9D9 JUMP JUMPDEST DUP2 ADD DUP2 DUP2 LT PUSH8 0xFFFFFFFFFFFFFFFF DUP3 GT OR ISZERO PUSH2 0xA3E JUMPI PUSH2 0xA3D PUSH2 0x9E9 JUMP JUMPDEST JUMPDEST DUP1 PUSH1 0x40 MSTORE POP POP POP JUMP JUMPDEST PUSH0 PUSH2 0xA50 PUSH2 0x8E3 JUMP JUMPDEST SWAP1 POP PUSH2 0xA5C DUP3 DUP3 PUSH2 0xA16 JUMP JUMPDEST SWAP2 SWAP1 POP JUMP JUMPDEST PUSH0 PUSH8 0xFFFFFFFFFFFFFFFF DUP3 GT ISZERO PUSH2 0xA7B JUMPI PUSH2 0xA7A PUSH2 0x9E9 JUMP JUMPDEST JUMPDEST PUSH2 0xA84 DUP3 PUSH2 0x9D9 JUMP JUMPDEST SWAP1 POP PUSH1 0x20 DUP2 ADD SWAP1 POP SWAP2 SWAP1 POP JUMP JUMPDEST DUP3 DUP2 DUP4 CALLDATACOPY PUSH0 DUP4 DUP4 ADD MSTORE POP POP POP JUMP JUMPDEST PUSH0 PUSH2 0xAB1 PUSH2 0xAAC DUP5 PUSH2 0xA61 JUMP JUMPDEST PUSH2 0xA47 JUMP JUMPDEST SWAP1 POP DUP3 DUP2 MSTORE PUSH1 0x20 DUP2 ADD DUP5 DUP5 DUP5 ADD GT ISZERO PUSH2 0xACD JUMPI PUSH2 0xACC PUSH2 0x9D5 JUMP JUMPDEST JUMPDEST PUSH2 0xAD8 DUP5 DUP3 DUP6 PUSH2 0xA91 JUMP JUMPDEST POP SWAP4 SWAP3 POP POP POP JUMP JUMPDEST PUSH0 DUP3 PUSH1 0x1F DUP4 ADD SLT PUSH2 0xAF4 JUMPI PUSH2 0xAF3 PUSH2 0x9D1 JUMP JUMPDEST JUMPDEST DUP2 CALLDATALOAD PUSH2 0xB04 DUP5 DUP3 PUSH1 0x20 DUP7 ADD PUSH2 0xA9F JUMP JUMPDEST SWAP2 POP POP SWAP3 SWAP2 POP POP JUMP JUMPDEST PUSH0 PUSH0 PUSH0 PUSH0 PUSH1 0x80 DUP6 DUP8 SUB SLT ISZERO PUSH2 0xB25 JUMPI PUSH2 0xB24 PUSH2 0x8EC JUMP JUMPDEST JUMPDEST PUSH0 PUSH2 0xB32 DUP8 DUP3 DUP9 ADD PUSH2 0x93A JUMP JUMPDEST SWAP5 POP POP PUSH1 0x20 PUSH2 0xB43 DUP8 DUP3 DUP9 ADD PUSH2 0x96D JUMP JUMPDEST SWAP4 POP POP PUSH1 0x40 PUSH2 0xB54 DUP8 DUP3 DUP9 ADD PUSH2 0x96D JUMP JUMPDEST SWAP3 POP POP PUSH1 0x60 DUP6 ADD CALLDATALOAD PUSH8 0xFFFFFFFFFFFFFFFF DUP2 GT ISZERO PUSH2 0xB75 JUMPI PUSH2 0xB74 PUSH2 0x8F0 JUMP JUMPDEST JUMPDEST PUSH2 0xB81 DUP8 DUP3 DUP9 ADD PUSH2 0xAE0 JUMP JUMPDEST SWAP2 POP POP SWAP3 SWAP6 SWAP2 SWAP5 POP SWAP3 POP JUMP JUMPDEST PUSH2 0xB96 DUP2 PUSH2 0x913 JUMP JUMPDEST DUP3 MSTORE POP POP JUMP JUMPDEST PUSH0 PUSH1 0x20 DUP3 ADD SWAP1 POP PUSH2 0xBAF PUSH0 DUP4 ADD DUP5 PUSH2 0xB8D JUMP JUMPDEST SWAP3 SWAP2 POP POP JUMP JUMPDEST PUSH0 PUSH1 0x20 DUP3 DUP5 SUB SLT ISZERO PUSH2 0xBCA JUMPI PUSH2 0xBC9 PUSH2 0x8EC JUMP JUMPDEST JUMPDEST PUSH0 PUSH2 0xBD7 DUP5 DUP3 DUP6 ADD PUSH2 0x93A JUMP JUMPDEST SWAP2 POP POP SWAP3 SWAP2 POP POP JUMP JUMPDEST PUSH2 0xBE9 DUP2 PUSH2 0x94E JUMP JUMPDEST DUP3 MSTORE POP POP JUMP JUMPDEST PUSH0 PUSH1 0x40 DUP3 ADD SWAP1 POP PUSH2 0xC02 PUSH0 DUP4 ADD DUP6 PUSH2 0xB8D JUMP JUMPDEST PUSH2 0xC0F PUSH1 0x20 DUP4 ADD DUP5 PUSH2 0xBE0 JUMP JUMPDEST SWAP4 SWAP3 POP POP POP JUMP JUMPDEST PUSH0 DUP2 ISZERO ISZERO SWAP1 POP SWAP2 SWAP1 POP JUMP JUMPDEST PUSH2 0xC2A DUP2 PUSH2 0xC16 JUMP JUMPDEST DUP2 EQ PUSH2 0xC34 JUMPI PUSH0 PUSH0 REVERT JUMPDEST POP JUMP JUMPDEST PUSH0 DUP2 MLOAD SWAP1 POP PUSH2 0xC45 DUP2 PUSH2 0xC21 JUMP JUMPDEST SWAP3 SWAP2 POP POP JUMP JUMPDEST PUSH0 PUSH1 0x20 DUP3 DUP5 SUB SLT ISZERO PUSH2 0xC60 JUMPI PUSH2 0xC5F PUSH2 0x8EC JUMP JUMPDEST JUMPDEST PUSH0 PUSH2 0xC6D DUP5 DUP3 DUP6 ADD PUSH2 0xC37 JUMP JUMPDEST SWAP2 POP POP SWAP3 SWAP2 POP POP JUMP JUMPDEST PUSH0 DUP3 DUP3 MSTORE PUSH1 0x20 DUP3 ADD SWAP1 POP SWAP3 SWAP2 POP POP JUMP JUMPDEST PUSH32 0x436C61696D436F6E74726163743A204E6F6E63652068617320616C7265616479 PUSH0 DUP3 ADD MSTORE PUSH32 0x206265656E20757365642E000000000000000000000000000000000000000000 PUSH1 0x20 DUP3 ADD MSTORE POP JUMP JUMPDEST PUSH0 PUSH2 0xCE0 PUSH1 0x2B DUP4 PUSH2 0xC76 JUMP JUMPDEST SWAP2 POP PUSH2 0xCEB DUP3 PUSH2 0xC86 JUMP JUMPDEST PUSH1 0x40 DUP3 ADD SWAP1 POP SWAP2 SWAP1 POP JUMP JUMPDEST PUSH0 PUSH1 0x20 DUP3 ADD SWAP1 POP DUP2 DUP2 SUB PUSH0 DUP4 ADD MSTORE PUSH2 0xD0D DUP2 PUSH2 0xCD4 JUMP JUMPDEST SWAP1 POP SWAP2 SWAP1 POP JUMP JUMPDEST PUSH0 DUP2 PUSH1 0x60 SHL SWAP1 POP SWAP2 SWAP1 POP JUMP JUMPDEST PUSH0 PUSH2 0xD2A DUP3 PUSH2 0xD14 JUMP JUMPDEST SWAP1 POP SWAP2 SWAP1 POP JUMP JUMPDEST PUSH0 PUSH2 0xD3B DUP3 PUSH2 0xD20 JUMP JUMPDEST SWAP1 POP SWAP2 SWAP1 POP JUMP JUMPDEST PUSH2 0xD53 PUSH2 0xD4E DUP3 PUSH2 0x913 JUMP JUMPDEST PUSH2 0xD31 JUMP JUMPDEST DUP3 MSTORE POP POP JUMP JUMPDEST PUSH0 DUP2 SWAP1 POP SWAP2 SWAP1 POP JUMP JUMPDEST PUSH2 0xD73 PUSH2 0xD6E DUP3 PUSH2 0x94E JUMP JUMPDEST PUSH2 0xD59 JUMP JUMPDEST DUP3 MSTORE POP POP JUMP JUMPDEST PUSH0 PUSH2 0xD84 DUP3 DUP8 PUSH2 0xD42 JUMP JUMPDEST PUSH1 0x14 DUP3 ADD SWAP2 POP PUSH2 0xD94 DUP3 DUP7 PUSH2 0xD42 JUMP JUMPDEST PUSH1 0x14 DUP3 ADD SWAP2 POP PUSH2 0xDA4 DUP3 DUP6 PUSH2 0xD62 JUMP JUMPDEST PUSH1 0x20 DUP3 ADD SWAP2 POP PUSH2 0xDB4 DUP3 DUP5 PUSH2 0xD62 JUMP JUMPDEST PUSH1 0x20 DUP3 ADD SWAP2 POP DUP2 SWAP1 POP SWAP6 SWAP5 POP POP POP POP POP JUMP JUMPDEST PUSH32 0x436C61696D436F6E74726163743A20496E76616C6964207369676E6174757265 PUSH0 DUP3 ADD MSTORE PUSH32 0x2E00000000000000000000000000000000000000000000000000000000000000 PUSH1 0x20 DUP3 ADD MSTORE POP JUMP JUMPDEST PUSH0 PUSH2 0xE20 PUSH1 0x21 DUP4 PUSH2 0xC76 JUMP JUMPDEST SWAP2 POP PUSH2 0xE2B DUP3 PUSH2 0xDC6 JUMP JUMPDEST PUSH1 0x40 DUP3 ADD SWAP1 POP SWAP2 SWAP1 POP JUMP JUMPDEST PUSH0 PUSH1 0x20 DUP3 ADD SWAP1 POP DUP2 DUP2 SUB PUSH0 DUP4 ADD MSTORE PUSH2 0xE4D DUP2 PUSH2 0xE14 JUMP JUMPDEST SWAP1 POP SWAP2 SWAP1 POP JUMP JUMPDEST PUSH0 PUSH1 0x40 DUP3 ADD SWAP1 POP PUSH2 0xE67 PUSH0 DUP4 ADD DUP6 PUSH2 0xBE0 JUMP JUMPDEST PUSH2 0xE74 PUSH1 0x20 DUP4 ADD DUP5 PUSH2 0xBE0 JUMP JUMPDEST SWAP4 SWAP3 POP POP POP JUMP JUMPDEST PUSH32 0x4E487B7100000000000000000000000000000000000000000000000000000000 PUSH0 MSTORE PUSH1 0x21 PUSH1 0x4 MSTORE PUSH1 0x24 PUSH0 REVERT JUMPDEST PUSH0 PUSH1 0x20 DUP3 ADD SWAP1 POP PUSH2 0xEBB PUSH0 DUP4 ADD DUP5 PUSH2 0xBE0 JUMP JUMPDEST SWAP3 SWAP2 POP POP JUMP JUMPDEST PUSH0 DUP2 SWAP1 POP SWAP2 SWAP1 POP JUMP JUMPDEST PUSH2 0xED3 DUP2 PUSH2 0xEC1 JUMP JUMPDEST DUP3 MSTORE POP POP JUMP JUMPDEST PUSH0 PUSH1 0x20 DUP3 ADD SWAP1 POP PUSH2 0xEEC PUSH0 DUP4 ADD DUP5 PUSH2 0xECA JUMP JUMPDEST SWAP3 SWAP2 POP POP JUMP JUMPDEST PUSH0 PUSH1 0xFF DUP3 AND SWAP1 POP SWAP2 SWAP1 POP JUMP JUMPDEST PUSH2 0xF07 DUP2 PUSH2 0xEF2 JUMP JUMPDEST DUP3 MSTORE POP POP JUMP JUMPDEST PUSH0 PUSH1 0x80 DUP3 ADD SWAP1 POP PUSH2 0xF20 PUSH0 DUP4 ADD DUP8 PUSH2 0xECA JUMP JUMPDEST PUSH2 0xF2D PUSH1 0x20 DUP4 ADD DUP7 PUSH2 0xEFE JUMP JUMPDEST PUSH2 0xF3A PUSH1 0x40 DUP4 ADD DUP6 PUSH2 0xECA JUMP JUMPDEST PUSH2 0xF47 PUSH1 0x60 DUP4 ADD DUP5 PUSH2 0xECA JUMP JUMPDEST SWAP6 SWAP5 POP POP POP POP POP JUMP INVALID LOG2 PUSH5 0x6970667358 0x22 SLT KECCAK256 0xDD SWAP15 EQ CHAINID 0xB9 AND DUP15 CODESIZE OR SIGNEXTEND STOP 0x2F PUSH22 0x70FAD652BDD290BC1A2F3D41447A82D8743CA964736F PUSH13 0x634300081E0033000000000000 "
				},
				"gasEstimates": {
					"creation": {
						"codeDepositCost": "794800",
						"executionCost": "infinite",
						"totalCost": "infinite"
					},
					"external": {
						"claimReward(address,uint256,uint256,bytes)": "infinite",
						"owner()": "2558",
						"renounceOwnership()": "infinite",
						"transferOwnership(address)": "infinite",
						"updateSignerAddress(address)": "infinite",
						"withdrawTokens(address,address,uint256)": "infinite"
					}
				},
				"methodIdentifiers": {
					"claimReward(address,uint256,uint256,bytes)": "61519f42",
					"owner()": "8da5cb5b",
					"renounceOwnership()": "715018a6",
					"transferOwnership(address)": "f2fde38b",
					"updateSignerAddress(address)": "8fa2a9f0",
					"withdrawTokens(address,address,uint256)": "5e35359e"
				}
			},
			"storageLayout": {
				"storage": [
					{
						"astId": 382,
						"contract": "contract/ClaimContract_flattened.sol:ClaimContract",
						"label": "_owner",
						"offset": 0,
						"slot": "0",
						"type": "t_address"
					},
					{
						"astId": 537,
						"contract": "contract/ClaimContract_flattened.sol:ClaimContract",
						"label": "signerAddress",
						"offset": 0,
						"slot": "1",
						"type": "t_address"
					},
					{
						"astId": 541,
						"contract": "contract/ClaimContract_flattened.sol:ClaimContract",
						"label": "usedNonces",
						"offset": 0,
						"slot": "2",
						"type": "t_mapping(t_uint256,t_bool)"
					}
				],
				"types": {
					"t_address": {
						"encoding": "inplace",
						"label": "address",
						"numberOfBytes": "20"
					},
					"t_bool": {
						"encoding": "inplace",
						"label": "bool",
						"numberOfBytes": "1"
					},
					"t_mapping(t_uint256,t_bool)": {
						"encoding": "mapping",
						"key": "t_uint256",
						"label": "mapping(uint256 => bool)",
						"numberOfBytes": "32",
						"value": "t_bool"
					},
					"t_uint256": {
						"encoding": "inplace",
						"label": "uint256",
						"numberOfBytes": "32"
					}
				}
			},
			"userdoc": {
				"kind": "user",
				"methods": {},
				"version": 1
			}
		}
	}
}